:020000041000EA
:1000000000B5324B212058609868022188439860DF
:10001000D860186158612E4B002199600221596106
:100020000121F02299502B49196001219960352056
:1000300000F044F80222904214D00621196600F024
:1000400034F8196E01211966002018661A6600F04E
:100050002CF8196E196E196E052000F02FF8012189
:100060000842F9D1002199601B49196000215960AB
:100070001A491B48016001219960EB211966A021F2
:10008000196600F012F800219960164914480160C1
:100090000121996001BC002800D000471248134993
:1000A000086003C880F30888084703B5996A0420EC
:1000B0000142FBD001200142F8D103BD02B5186610
:1000C0001866FFF7F2FF186E186E02BD00000240BE
:1000D000000000180000070000035F00212200005C
:1000E000F4000018222000A00001001008ED00E03C
:1000F00000000000000000000000000074B24E7A12
:1001000000200420F7010010C3010010C5010010F9
:10011000C1010010C1010010C1010010C101001097
:10012000C1010010C1010010C1010010C701001081
:10013000C1010010C1010010C9010010CB01001065
:10014000CD010010CD010010CD010010CD01001037
:10015000CD010010CD010010CD010010CD01001027
:10016000CD010010CD010010CD010010CD01001017
:10017000CD010010CD010010CD010010CD01001007
:10018000CD010010CD010010CD010010CD010010F7
:10019000CD010010CD010010CD010010CD010010E7
:1001A000CD010010CD010010CD010010CD010010D7
:1001B000CD010010CD010010CD010010CD010010C7
:1001C00000BE00BE00BE00BE00BE00BEEFF3058054
:1001D000103800BEF2EB88713C8600106486001077
:1001E0003402001090A31AE700201F49086006C8D7
:1001F00081F3088810471D48006800282FD10DA4FE
:100200000ECC002902D000F012F8F9E71849194A7B
:10021000002000E001C19142FCD1174988471749ED
:1002200088471749884700BEFDE701C901C29A42C5
:10023000FBD3704764860010C000002078020020C5
:100240001C88001000000420000004201C880010FE
:10025000001004200010042000000000704709482E
:1002600006F078F80047000008ED00E0000000D03C
:1002700088020020800600200D4C001005030010AD
:10028000014D00105756000006005250ABB36053AA
:100290007885001006005250861C030288850010E5
:1002A000060052505422A29D908500100500525025
:1002B000DE65F4681C880010F8B5C04610B5064C21
:1002C0002378002B07D1054B002B02D0044800E017
:1002D00000BF0123237010BD88050020000000002E
:1002E000587C0010044B10B5002B03D00349044880
:1002F00000E000BF10BDC046000000008C050020DB
:10030000587C0010F0B5DE4657464E464546002361
:10031000E0B58DB002AF99469A460293BB8000F0DB
:1003200073F807F0C3F9E1213348490204F0D0F92A
:10033000032003F011F81F239B4648E0002002F041
:10034000BBFB0023F85E00F091F883B29A460500EB
:100350000223F85E00F07CF8040083B22748994637
:1003600007F0F6F81421142002F0ECFF244802F004
:10037000FDFF29B220B203F003F82249020004A8CD
:1003800005F09EFF04A802F071FF53464C464E460E
:1003900055460F3B1BB298465B460F3C0F360F3558
:1003A00024B236B22DB232004146200000932B0019
:1003B00002F02AFC5B4620003200290000934346ED
:1003C00002F022FC00F060F8642003F0A7FD380082
:1003D00000F0C2F903A800F031F80028AED11421D2
:1003E000142002F0AFFF064802F0C0FF534619B2D6
:1003F0004B4618B2BFE7C04600400340587C00108F
:10040000FFFF0000807C001010B507F03BFA00F001
:100410000FFB01F0ABF8032002F062FB002002F0BA
:100420004BFB2821282002F08DFF034802F09EFF9D
:10043000022002F091FF10BDFFFF000003880020A2
:10044000024A9A424041C0B27047C046DB050000F4
:10045000E12143001B185B01181A10B58000090147
:1004600005F0D2FFBE235B00181A10BD0300800008
:10047000C0180301181A10B50249800005F0C4FF26
:100480003C3810BD480D0000F0B5DE4645465746E5
:100490004E46E0B5A0488DB007F05AF81F219F489E
:1004A00007F0F8F80A2303939D4B00249846012691
:1004B000039B76421AB2771C1C3391461BB23A005A
:1004C000210040462C25029307F0E4F8012C3BD094
:1004D000022C00D176E0032C00D1C1E0002C00D129
:1004E00097E0ABB29A468F4B482201930A234846C5
:1004F00029B20093263302F019FC002002F036FFE7
:1005000039239B46022E00D8F9E05146113102985A
:1005100009B202F017FF5A46834904A805F0D0FE3D
:100520005946824804AA07F0B5F804A802F09EFED6
:10053000022E35D03E00771C3A002100404632356D
:1005400007F0A8F8012CC3D1032F00D1B3E0ABB260
:100550009B46744B482201930A23484629B20093D4
:10056000263302F0E3FB002002F000FF38239A4616
:10057000022E00D8BFE059461131029809B202F0AC
:10058000E1FE5246684904A805F09AFE51466848C3
:1005900004AA07F07FF804A802F068FE022EC9D171
:1005A000039B01344B339BB20393042C00D07EE7B2
:1005B000604806F0CDFF0DB0F0BCBB46B246A94680
:1005C000A046F0BD032F00D08BE71F230193153BFE
:1005D000482229B248460093263302F0A7FB0020A8
:1005E00002F0C4FE039811351D3029B200B202F0AA
:1005F000A9FE3D2302AA5048138104A907F04AF836
:1006000004A802F033FE039B01344B339BB20393E7
:100610004DE7ABB29B46434B482201930A23484621
:1006200029B20093263302F081FB002002F09EFEE7
:1006300037239A46022E6AD959461131029809B2D7
:1006400002F080FE5246384904A805F039FE5146B2
:1006500004AA3A4807F01EF804A802F007FE67E76C
:10066000ABB29B46FC23DB0001930A234822484699
:1006700029B20093263302F059FB002002F076FEE7
:100680002B239A46022E3ED959461131029809B2BF
:1006900002F058FE5246244904A805F011FE5146C6
:1006A000274804AA06F0F6FF04A802F0DFFD022E98
:1006B00000D03FE77CE7029B48229A46F8231B02C2
:1006C00001930A2329B248460093263302F02EFBF9
:1006D0001135002002F04AFE504629B202F032FEE7
:1006E000432302AA138104A9164806F0D3FF04A8E5
:1006F00002F0BCFD87E7144BF35C9A463BE7134BD3
:10070000F35C9B4601E7124BF35C9A46BCE7114B46
:10071000F35C9A4690E7C0468C7C0010AC7C0010DD
:10072000C07C0010FFFF0000887C00106C7D001072
:10073000487D0010907D0010E87C0010247D0010A2
:10074000007D0010D07C0010B47D0010B87D00103A
:10075000AC7D0010B07D0010F0B5D6464F46464641
:10076000C0B5814684B0152002F0D0FED02480238D
:1007700024069B03A3621F211B2002F071FE0022AE
:1007800000211B2002F084FE00211B2002F0AAFEA3
:100790008023984D5B012A6816205340E022D20145
:1007A0001340954A04AF136002F0B0FE8023DB03D0
:1007B00063621A20636102F0A9FE8023DB04636296
:1007C000A3618E4B01AC8022260021009C460420B0
:1007D0005200634618602B681342FCD06B681B0400
:1007E0001B0C08C1B942F4D1029A019B934200DC70
:1007F000FBE0029323001A60039D022202A900E09D
:1008000001227F4BD3189B00E058854200DBE6E0D5
:10081000C850012AF4D1220015606268794B162075
:100820009B1A984602F072FED0231B069A4680233C
:100830005246DB0393621F211A2002F011FE0022B0
:1008400000211A2002F024FE00211A2002F04AFEA4
:10085000E022684DD2012B681B201340664A1360CA
:1008600002F054FE802352461B055362152053614B
:1008700002F04CFE802352469B0353629361802218
:1008800004215E48520001602B681342FCD06B6863
:100890001B041B0C08C6BE42F5D1029A019B934271
:1008A00000DCA4E0029323001A60039E022202A847
:1008B00000E00122524BD3189B00E1588E4200DB2E
:1008C00090E0C150012AF4D12200166063684D4CBB
:1008D0001620E41AD02602F019FE80233606DB0328
:1008E00073621520B36102F011FE80239B037362D3
:1008F0001F2173611A2002F0B3FD002200211A208B
:1009000002F0C6FD00211A2002F0ECFD1F211B2081
:1009100002F0A6FD002200211B2002F0B9FD0021FB
:100920001B2002F0DFFDE021324AC90113680B40B1
:1009300031490B600421314B1960FC3113680B42C3
:10094000FCD08023566812685B015340E022D2013C
:100950001340294A802113600422284B36041A6070
:10096000244A360C490013680B42FCD0506800043E
:10097000000C06F0D3FB071C300006F0CFFB011C77
:10098000381C06F082FBFE21890506F078FB061C68
:10099000404606F0C3FB311C06F08BFB1A4906F0FB
:1009A00088FBE621890506F084FB1849061C06F041
:1009B000AFFB002811D1301C06F0D2FB06B2144860
:1009C00006F0C6FD4B4642465C801A809E8004B00D
:1009D000E0BCBA46B146A846F0BD0E4EEFE7920025
:1009E000A21819E79200A2186FE702AB03E702AB67
:1009F0005AE7C04600C0044000D0044000E0044074
:100A0000FFFFFF3FFF0F00000080894300FEFF460D
:100A1000BC7D0010FF7F00000122034B1A630022FF
:100A2000024B1A707047C046000020509801002009
:100A3000F0B5C646F02200B5404B84B01A80404B5A
:100A4000503212201A80D02402F060FD8023240648
:100A5000DB0263621420636102F058FD80235B03B4
:100A60006362102002F052FD8023364E5B02636207
:100A700035493068984606F021FF344BC2011860B2
:100A8000431D1B031343324A346813400193314B17
:100A900075680393304B0700029343460093A023ED
:100AA0002900200000221B0306F06CFFA0231B037B
:100AB0001A002900200006F0B7FF284B1320E31886
:100AC0005A1E934106339846190002F0C9FC41466C
:100AD000112002F0C5FC0021112002F0F1FC6B4650
:100AE0003A002900200006F0F1FF6B005B19DB00E3
:100AF0001B4AE318D8331A601A4A07201A600122E9
:100B00001300AB4021680B432360336816491A6316
:100B100080222D339201FF331343802252001A604A
:100B200002F086FD0121072002F068FDFA20400056
:100B300003F0F4F904B080BCB846F0BD6E060020A6
:100B40006C0600209C010020C082001038060020A6
:100B5000FFFFFF9F13441020000006100000E0AFCD
:100B600026E0000046E00000190A0010012270B5DE
:100B7000104D060A6B6829681C1D10339A40A400AA
:100B80000C194B681A42FCD1267012CD23000122A9
:100B900010339A40084D2B78002BFCD104340133DC
:100BA000A4002B70C0B20C194B681342FCD120700A
:100BB00070BDC0469C01002098010020F0B5D023F4
:100BC00015008022C6461B06520200B59A6180229B
:100BD000D2029A610122814E0F00736831681C1D98
:100BE00010339A40A4000C194B681A42FCD12A23F6
:100BF0002370C046C046C046C046C046C046C04638
:100C0000C046C046C046C046C046C046C046C046B4
:100C1000C046C046C046C046C046C046C046C046A4
:100C2000C046C046C046C046C046C046C046C04694
:100C3000C046C046C046C046C046C046C046C04684
:100C4000C046C046C046C046C046C046C046C04674
:100C5000C046C046C046C046C046C046C046C04664
:100C6000C046C046C046C046C046C046C046C04654
:100C7000C0465B4C2378002BFCD1013323708022CB
:100C8000D02380211B06D20249025A6159619A6120
:100C900083B218009846FFF769FFC046C046C046B9
:100CA000C046C046C046C046C046C046C046C04614
:100CB000C046C046C046C046C046C046C046C04604
:100CC000C046C046C046C046C046C046C046C046F4
:100CD000C046C046C046C046C046C046C046C046E4
:100CE000C046C046C046C046C046C046C046C046D4
:100CF000C046C046C046C046C046C046C046C046C4
:100D0000C046C046C046C046C046C046C046C046B3
:100D1000C046C046C046C046C046C046C046C046A3
:100D2000C046C046C046C046C046C046C046C04693
:100D3000C046C046C046C046C046C046C046C04683
:100D4000C046C046C046C046C046C046C046C04673
:100D5000C046C046C046C046C046C046C046C04663
:100D6000C046C046C046C046C046C046C046C04653
:100D7000C046C046C046C046C046C046C046C04643
:100D8000C046C046C046C046C046C046C046C04633
:100D9000C046C046C046C046C046C046C046C04623
:100DA000C046C046C046C046C046C046C046C04613
:100DB000C046C046C046C046C046C046C046C04603
:100DC000C046C046C046C046C046C046C046C046F3
:100DD000C046C046C046C046C04603E09C01002055
:100DE000980100202378002BFCD10133237040466A
:100DF000D02380221B06D20201305A6180B29A6150
:100E0000FFF7B4FEC046C046C046C046C046C04616
:100E1000C046C046C046C046C046C046C046C046A2
:100E2000C046C046C046C046C046C046C046C04692
:100E3000C046C046C046C046C046C046C046C04682
:100E4000C046C046C046C046C046C046C046C04672
:100E5000C046C046C046C046C046C046C046C04662
:100E6000C046C046C046C046C046C046C046C04652
:100E7000C046C046C046C046C046C046C046C04642
:100E8000C046C046C046C046C046C046C046C04632
:100E9000C046C046C046C046C046C046C046C04622
:100EA000C046C046C046C046C046C046C046C04612
:100EB000C046C046C046C046C046C046C046C04602
:100EC000C046C046C046C046C046C046C046C046F2
:100ED000C046C046C046C046C046C046C046C046E2
:100EE000C046C046C046C046C046C046C046C046D2
:100EF000C046C046C046C046C046C046C046C046C2
:100F0000C046C046C046C046C046C046C046C046B1
:100F1000C046C046C046C046C046C046C046C046A1
:100F2000C046C046C046C046C046C046C046C04691
:100F3000C046C046C046C046C046C046C046C04681
:100F4000C046C0462378002BFCD1D02380228021CC
:100F500001201B06D202490220705A619961716812
:100F60009A610B1D9B009C46103188403268944466
:100F700053681842FCD12B2362461370C046C0460A
:100F8000C046C046C046C046C046C046C046C04631
:100F9000C046C046C046C046C046C046C046C04621
:100FA000C046C046C046C046C046C046C046C04611
:100FB000C046C046C046C046C046C046C046C04601
:100FC000C046C046C046C046C046C046C046C046F1
:100FD000C046C046C046C046C046C046C046C046E1
:100FE000C046C046C046C046C046C046C046C046D1
:100FF000C046C046C046C046C046C046C046C046C1
:10100000C046C046C046C046C046C046C046C046B0
:10101000C046C046C046C046C046C046C046C046A0
:10102000C046C046C046C046C046C046C046C04690
:10103000C046C046C046C046C046C0462378002BC6
:10104000FCD1013323708022D02380211B06D202E1
:101050004902BFB25A61380059619A61FFF786FDB3
:10106000C046C046C046C046C046C046C046C04650
:10107000C046C046C046C046C046C046C046C04640
:10108000C046C046C046C046C046C046C046C04630
:10109000C046C046C046C046C046C046C046C04620
:1010A000C046C046C046C046C046C046C046C04610
:1010B000C046C046C046C046C046C046C046C04600
:1010C000C046C046C046C046C046C046C046C046F0
:1010D000C046C046C046C046C046C046C046C046E0
:1010E000C046C046C046C046C046C046C046C046D0
:1010F000C046C046C046C046C046C046C046C046C0
:10110000C046C046C046C046C046C046C046C046AF
:10111000C046C046C046C046C046C046C046C0469F
:10112000C046C046C046C046C046C046C046C0468F
:10113000C046C046C046C046C046C046C046C0467F
:10114000C046C046C046C046C046C046C046C0466F
:10115000C046C046C046C046C046C046C046C0465F
:10116000C046C046C046C046C046C046C046C0464F
:10117000C046C046C046C046C046C046C046C0463F
:10118000C046C046C046C046C046C046C046C0462F
:10119000C046C046C046C046C046C046C046C0461F
:1011A0002378002BFCD1013323708022D023D2027C
:1011B0001B0601375A61B8B29A61FFF7D7FCC046E7
:1011C000C046C046C046C046C046C046C046C046EF
:1011D000C046C046C046C046C046C046C046C046DF
:1011E000C046C046C046C046C046C046C046C046CF
:1011F000C046C046C046C046C046C046C046C046BF
:10120000C046C046C046C046C046C046C046C046AE
:10121000C046C046C046C046C046C046C046C0469E
:10122000C046C046C046C046C046C046C046C0468E
:10123000C046C046C046C046C046C046C046C0467E
:10124000C046C046C046C046C046C046C046C0466E
:10125000C046C046C046C046C046C046C046C0465E
:10126000C046C046C046C046C046C046C046C0464E
:10127000C046C046C046C046C046C046C046C0463E
:10128000C046C046C046C046C046C046C046C0462E
:10129000C046C046C046C046C046C046C046C0461E
:1012A000C046C046C046C046C046C046C046C0460E
:1012B000C046C046C046C046C046C046C046C046FE
:1012C000C046C046C046C046C046C046C046C046EE
:1012D000C046C046C046C046C046C046C046C046DE
:1012E000C046C046C046C046C046C046C046C046CE
:1012F000C046C046C046C046C046C046C046237829
:10130000002BFCD1D0238022802001211B06D20299
:10131000400221705A6198619A6144CE301D1036A6
:10132000B1408000101853680B42FCD12C2303708D
:10133000C046C046C046C046C046C046C046C0467D
:10134000C046C046C046C046C046C046C046C0466D
:10135000C046C046C046C046C046C046C046C0465D
:10136000C046C046C046C046C046C046C046C0464D
:10137000C046C046C046C046C046C046C046C0463D
:10138000C046C046C046C046C046C046C046C0462D
:10139000C046C046C046C046C046C046C046C0461D
:1013A000C046C046C046C046C046C046C046C0460D
:1013B000C046C046C046C046C046C046C046C046FD
:1013C000C046C046C046C046C046C046C046C046ED
:1013D000C046C046C046C046C046C046C046C046DD
:1013E000C046C046C046C046C046C046C046C046CD
:1013F0002378002BFCD1013323708022D02380215D
:101400001B06D20249025A61280059619A61FFF70E
:10141000ADFBC046C046C046C046C046C046C046FA
:10142000C046C046C046C046C046C046C046C0468C
:10143000C046C046C046C046C046C046C046C0467C
:10144000C046C046C046C046C046C046C046C0466C
:10145000C046C046C046C046C046C046C046C0465C
:10146000C046C046C046C046C046C046C046C0464C
:10147000C046C046C046C046C046C046C046C0463C
:10148000C046C046C046C046C046C046C046C0462C
:10149000C046C046C046C046C046C046C046C0461C
:1014A000C046C046C046C046C046C046C046C0460C
:1014B000C046C046C046C046C046C046C046C046FC
:1014C000C046C046C046C046C046C046C046C046EC
:1014D000C046C046C046C046C046C046C046C046DC
:1014E000C046C046C046C046C046C046C046C046CC
:1014F000C046C046C046C046C046C046C046C046BC
:10150000C046C046C046C046C046C046C046C046AB
:10151000C046C046C046C046C046C046C046C0469B
:10152000C046C046C046C046C046C046C046C0468B
:10153000C046C046C046C046C046C046C046C0467B
:10154000C046C046C046C046C046C046C046C0466B
:10155000C0462378002BFCD1013323708022D02396
:10156000D2021B065A6180BCB846F0BDF0B5FA2025
:10157000C646D02480258027802624066D0300B52A
:1015800040007F02F60202F0C9FCA5610520A761B8
:101590006661656102F0C2FC1420A56102F0BEFC28
:1015A0009620656102F0BAFC0122DE4DA7616B68EE
:1015B0002968181D10339A408000A66108184B68EE
:1015C0001A42FCD1EF230370686801220300103334
:1015D0009A402968D44C2378002BFCD10133237026
:1015E0008026D023802704301B06F6027F0280006D
:1015F0005E6108185F619E614B681A42FCD103234B
:10160000037068680122030010339A402968237828
:10161000002BFCD1013323708026D0238027043097
:101620001B06F6027F0280005E6108185F619E6102
:101630004B681A42FCD180230370686801220300C2
:1016400010339A4029682378002BFCD10133237092
:101650008026D023802704301B06F6027F028000FC
:101660005E6108185F619E614B681A42FCD10223DB
:10167000037068680122030010339A4029682378B8
:10168000002BFCD1013323708026D0238027043027
:101690001B06F6027F0280005E6108189F619E6152
:1016A0004B681A42FCD1CF23037068680122030003
:1016B00010339A4029682378002BFCD10133237022
:1016C0008026D02380271B06F6027F0204305E614D
:1016D0005F619E6186008E1910004B6818401A42A7
:1016E000FAD1307068680122030010339A402968EB
:1016F0002378002BFCD1013323708026D023802750
:1017000004301B06F6027F0280005E6108185F61EC
:101710009E614B681A42FCD1C123037068680122A4
:10172000030010339A4029682378002BFCD1013341
:1017300023708026D023802704301B06F6027F0208
:1017400080005E6108185F619E614B681A42FCD19F
:101750003023037068680122030010339A4029681F
:101760002378002BFCD1013323708026D0238027DF
:1017700004301B06F6027F0280005E6108189F613C
:101780009E614B681A42FCD1ED2303706868012208
:10179000030010339A4029682378002BFCD10133D1
:1017A00023708026D023802704301B06F6027F0298
:1017B00080005E6108185F619E614B681A42FCD12F
:1017C0006423037068680122030010339A4029687B
:1017D0002378002BFCD1013323708026D02380276F
:1017E00004301B06F6027F0280005E6108185F610C
:1017F0009E614B681A42FCD1032303706868012282
:10180000030010339A4029682378002BFCD1013360
:1018100023708026D023802704301B06F6027F0227
:1018200080005E6108185F619E614B681A42FCD1BE
:101830001223037068680122030010339A4029685C
:101840002378002BFCD1013323708026D0238027FE
:1018500004301B06F6027F0280005E6108185F619B
:101860009E614B681A42FCD1812303706868012293
:10187000030010339A4029682378002BFCD10133F0
:1018800023708026D023802704301B06F6027F02B7
:1018900080005E6108189F619E614B681A42FCD10E
:1018A000E823037068680122030010339A40296816
:1018B0002378002BFCD1013323708026D02380278E
:1018C00004301B06F6027F0280005E6108185F612B
:1018D0009E614B681A42FCD185230370686801221F
:1018E000030010339A4029682378002BFCD1013380
:1018F00023708026D02380271B06F6027F02043047
:101900005E615F619E6186008E1910004B68184011
:101910001A42FAD1307068680122030010339A40ED
:10192000296803E09C010020980100202378002B07
:10193000FCD1013323708026D023802704301B067E
:10194000F6027F0280005E6108185F619E614B684D
:101950001A42FCD178230370686801220300103317
:101960009A4029682378002BFCD10133237080260C
:10197000D023802704301B06F6027F0280005E61C0
:1019800008189F619E614B681A42FCD1CB230370FB
:1019900068680122030010339A4029682378002BDD
:1019A000FCD1013323708026D023802704301B060E
:1019B000F6027F0280005E6108185F619E614B68DD
:1019C0001A42FCD1392303706868012203001033E6
:1019D0009A4029682378002BFCD10133237080269C
:1019E000D023802704301B06F6027F0280005E6150
:1019F00008185F619E614B681A42FCD12C2303706A
:101A000068680122030010339A4029682378002B6C
:101A1000FCD1013323708026D02380271B06F602D9
:101A20007F0204305E615F619E6186008E19100046
:101A30004B6818401A42FAD13070686801220300DE
:101A400010339A4029682378002BFCD1013323708E
:101A50008026D023802704301B06F6027F028000F8
:101A60005E6108185F619E614B681A42FCD13423A5
:101A7000037068680122030010339A4029682378B4
:101A8000002BFCD1013323708026D0238027043023
:101A90001B06F6027F0280005E6108185F619E618E
:101AA0004B681A42FCD102230370686801220300CC
:101AB00010339A4029682378002BFCD1013323701E
:101AC0008026D023802704301B06F6027F02800088
:101AD0005E6108189F619E614B681A42FCD1F72332
:101AE000037068680122030010339A402968237844
:101AF000002BFCD1013323708026D02380270430B3
:101B00001B06F6027F0280005E6108185F619E611D
:101B10004B681A42FCD1202303706868012203003D
:101B200010339A4029682378002BFCD101332370AD
:101B30008026D023802704301B06F6027F02800017
:101B40005E6108189F619E614B681A42FCD1EA23CE
:101B5000037068680122030010339A4029682378D3
:101B6000002BFCD1013323708026D02380271B0655
:101B7000F6027F0204305E615F619E6186008E190D
:101B800010004B6818401A42FAD130706868012280
:101B9000030010339A4029682378002BFCD10133CD
:101BA00023708026D02380271B06F6027F02043094
:101BB0005E615F619E6186008E1910004B6818405F
:101BC0001A42FAD1307068680122030010339A403B
:101BD00029682378002BFCD1013323708026D02381
:101BE000802704301B06F6027F0280005E61081821
:101BF0009F619E614B681A42FCD1C02303706868E4
:101C00000122030010339A4029682378002BFCD16D
:101C1000013323708026D023802704301B06F60270
:101C20007F0280005E6108185F619E614B681A4206
:101C3000FCD12323037068680122030010339A400B
:101C400029682378002BFCD1013323708026D02310
:101C5000802704301B06F6027F0280005E610818B0
:101C60009F619E614B681A42FCD1C1230370686872
:101C70000122030010339A4029682378002BFCD1FD
:101C8000013323708026D023802704301B06F60200
:101C90007F0280005E6108185F619E614B681A4296
:101CA000FCD11023037068680122030010339A40AE
:101CB00029682378002BFCD1013323708026D023A0
:101CC000802704301B06F6027F0280005E61081840
:101CD0009F619E614B681A42FCD1C52303706868FE
:101CE0000122030010339A4029682378002BFCD18D
:101CF000013323708026D023802704301B06F60290
:101D00007F0280005E6108185F619E614B681A4225
:101D1000FCD13E23037068680122030010339A400F
:101D200029682378002BFCD1013323708026D0232F
:101D3000802704301B06F6027F0280005E610818CF
:101D40005F619E614B681A42FCD12823037068686A
:101D50000122030010339A4029682378002BFCD11C
:101D6000013323708026D023802704301B06F6021F
:101D70007F0280005E6108189F619E614B681A4275
:101D8000FCD1C723037068680122030010339A4016
:101D900029682378002BFCD1013323708026D023BF
:101DA000802704301B06F6027F0280005E6108185F
:101DB0005F619E614B681A42FCD18623037068689C
:101DC0000122030010339A4029682378002BFCD1AC
:101DD000013323708026D023802704301B06F602AF
:101DE0007F0280005E6108189F619E614B681A4205
:101DF000FCD13623037068680122030010339A4037
:101E000029682378002BFCD1013323708026D0234E
:101E1000802704301B06F6027F0280005E610818EE
:101E20005F619E614B681A42FCD148230370686869
:101E30000122030010339A4029682378002BFCD13B
:101E4000013323708026D023802704301B06F6023E
:101E50007F0280005E6108189F619E614B681A4294
:101E6000FCD13A23037068680122030010339A40C2
:101E700029682378002BFCD1013323708026D023DE
:101E8000802704301B06F6027F0280005E6108187E
:101E90005F619E614B681A42FCD1552303706868EC
:101EA0000122030010339A4029682378002BFCD1CB
:101EB000013323708026D023802704301B06F602CE
:101EC0007F0280005E6108189F619E614B681A4224
:101ED000FCD1B123037068680122030010339A40DB
:101EE00029682378002BFCD1013323708026D0236E
:101EF00080271B06F6027F0204305E615F619E61EF
:101F000086008E1910004B6818401A42FAD13070C2
:101F100068680122030010339A4029682378002B57
:101F2000FCD1013323708026D023802704301B0688
:101F3000F6027F0280005E6108185F619E614B6857
:101F40001A42FCD118230370686801220300103381
:101F50009A4029682378002BFCD101332370802616
:101F6000D023802704301B06F6027F0280005E61CA
:101F700008189F619E614B681A42FCD1B62303701A
:101F800068680122030010339A4029682378002BE7
:101F9000FCD1013323708026D023802704301B0618
:101FA000F6027F0280005E6108185F619E614B68E7
:101FB0001A42FCD108230370686801220300103321
:101FC0009A4029682378002BFCD1013323708026A6
:101FD000D023802704301B06F6027F0280005E615A
:101FE00008185F619E614B681A42FCD1822303701E
:101FF00068680122030010339A4029682378002B77
:10200000FCD1013323708026D023802704301B06A7
:10201000F6027F0280005E6108185F619E614B6876
:102020001A42FCD127230370686801220300103391
:102030009A4029682378002BFCD101332370802635
:10204000D023802704301B06F6027F0280005E61E9
:1020500008189F619E614B681A42FCD1F2230370FD
:1020600068680122030010339A4029682378002B06
:10207000FCD1013323708026D02380271B06F60273
:102080007F0204305E615F619E6186008E191000E0
:102090004B6818401A42FAD1307068680122030078
:1020A00010339A4029682378002BFCD10133237028
:1020B0008026D023802704301B06F6027F02800092
:1020C0005E6108189F619E614B681A42FCD126230D
:1020D000037068680122030010339A40296823784E
:1020E000002BFCD1013323708026D02380270430BD
:1020F0001B06F6027F0280005E6108185F619E6128
:102100004B681A42FCD101220270686829680300FA
:1021100010339A402378002BFCD1013323708026A2
:10212000D023802704301B06F6027F0280005E6108
:1021300008189F619E614B681A42FCD1E02303702E
:1021400068680122030010339A4029682378002B25
:10215000FCD1013323708026D023802704301B0656
:10216000F6027F0280005E6108185F619E614B6825
:102170001A42FCD10F230370686801220300103358
:102180009A4029682378002BFCD1013323708026E4
:10219000D023802704301B06F6027F0280005E6198
:1021A00008185F619E614B681A42FCD131230370AD
:1021B00068680122030010339A4029682378002BB5
:1021C000FCD1013323708026D023802704301B06E6
:1021D000F6027F0280005E6108185F619E614B68B5
:1021E0001A42FCD12B2303706868012203001033CC
:1021F0009A4029682378002BFCD101332370802674
:10220000D023802704301B06F6027F0280005E6127
:1022100008185F619E614B681A42FCD10C23037061
:1022200068680122030010339A4029682378002B44
:10223000FCD1013323708026D023802704301B0675
:10224000F6027F0280005E6108185F619E614B6844
:102250001A42FCD10E230370686801220300103378
:102260009A4029682378002BFCD101332370802603
:10227000D023802704301B06F6027F0280005E61B7
:1022800008185F619E614B681A42FCD108230370F5
:1022900068680122030010339A4029682378002BD4
:1022A000FCD1013323708026D023802704301B0605
:1022B000F6027F0280005E6108185F619E614B68D4
:1022C0001A42FCD14E2303706868012203001033C8
:1022D0009A4029682378002BFCD101332370802693
:1022E000D023802704301B06F6027F0280005E6147
:1022F00008185F619E614B681A42FCD1F12303709C
:1023000068680122030010339A4029682378002B63
:10231000FCD1013323708026D023802704301B0694
:10232000F6027F0280005E6108185F619E614B6863
:102330001A42FCD13723037068680122030010336E
:102340009A4029682378002BFCD101332370802622
:10235000D023802704301B06F6027F0280005E61D6
:1023600008185F619E614B681A42FCD10723037015
:1023700068680122030010339A4029682378002BF3
:10238000FCD1013323708026D023802704301B0624
:10239000F6027F0280005E6108185F619E614B68F3
:1023A0001A42FCD110230370686801220300103325
:1023B0009A4029682378002BFCD1013323708026B2
:1023C000D023802704301B06F6027F0280005E6166
:1023D00008185F619E614B681A42FCD103230370A9
:1023E00068680122030010339A4029682378002B83
:1023F000FCD1013323708026D023802704301B06B4
:10240000F6027F0280005E6108185F619E614B6882
:102410001A42FCD10E2303706868012203001033B6
:102420009A4029682378002BFCD101332370802641
:10243000D023802704301B06F6027F0280005E61F5
:1024400008185F619E614B681A42FCD10923037032
:1024500068680122030010339A4029682378002B12
:10246000FCD1013323708026D02380271B06F6027F
:102470007F0204305E615F619E6186008E191000EC
:102480004B6818401A42FAD1307068680122030084
:1024900010339A4029682378002BFCD10133237034
:1024A0008026D023802704301B06F6027F0280009E
:1024B0005E6108189F619E614B681A42FCD1E1235E
:1024C000037068680122030010339A40296823785A
:1024D000002BFCD1013323708026D02380271B06DC
:1024E000F6027F0204305E615F619E6186008E1994
:1024F00010004B6818401A42FAD130706868012207
:10250000030010339A4029682378002BFCD1013353
:1025100023708026D023802704301B06F6027F021A
:1025200080005E6108185F619E614B681A42FCD1B1
:102530000E23037068680122030010339A40296853
:102540002378002BFCD1013323708026D0238027F1
:1025500004301B06F6027F0280005E6108185F618E
:102560009E614B681A42FCD11423037068680122F3
:10257000030010339A4029682378002BFCD10133E3
:1025800023708026D023802704301B06F6027F02AA
:1025900080005E6108185F619E614B681A42FCD141
:1025A0000323037068680122030010339A402968EE
:1025B0002378002BFCD1013323708026D023802781
:1025C00004301B06F6027F0280005E6108185F611E
:1025D0009E614B681A42FCD1112303706868012286
:1025E000030010339A4029682378002BFCD1013373
:1025F00023708026D023802704301B06F6027F023A
:1026000080005E6108185F619E614B681A42FCD1D0
:102610000723037068680122030010339A40296879
:102620002378002BFCD1013323708026D023802710
:1026300004301B06F6027F0280005E6108185F61AD
:102640009E614B681A42FCD13123037068680122F5
:10265000030010339A4029682378002BFCD1013302
:1026600023708026D023802704301B06F6027F02C9
:1026700080005E6108185F619E614B681A42FCD160
:10268000C123037068680122030010339A4029684F
:102690002378002BFCD1013323708026D0238027A0
:1026A00004301B06F6027F0280005E6108185F613D
:1026B0009E614B681A42FCD148230370686801226E
:1026C000030010339A4029682378002BFCD1013392
:1026D00023708026D023802704301B06F6027F0259
:1026E00080005E6108185F619E614B681A42FCD1F0
:1026F0000823037068680122030010339A40296898
:102700002378002BFCD1013323708026D02380272F
:1027100004301B06F6027F0280005E6108185F61CC
:102720009E614B681A42FCD10F2303706868012236
:10273000030010339A4029682378002BFCD1013321
:1027400023708026D023802704301B06F6027F02E8
:1027500080005E6108185F619E614B681A42FCD17F
:102760000C23037068680122030010339A40296823
:102770002378002BFCD1013323708026D0238027BF
:1027800004301B06F6027F0280005E6108185F615C
:102790009E614B681A42FCD13123037068680122A4
:1027A000030010339A4029682378002BFCD10133B1
:1027B00023708026D023802704301B06F6027F0278
:1027C00080005E6108185F619E614B681A42FCD10F
:1027D0003623037068680122030010339A40296889
:1027E0002378002BFCD1013323708026D02380274F
:1027F00004301B06F6027F0280005E6108185F61EC
:102800009E614B681A42FCD10F2303706868012255
:10281000030010339A4029682378002BFCD1013340
:1028200023708026D023802704301B06F6027F0207
:1028300080005E6108189F619E614B681A42FCD15E
:10284000112303702378002BFCD1D027802301268D
:10285000DB023F06267078207B61984601F05EFB24
:1028600006CD80235B02BB61101D434610329640AB
:102870008000BB6108184B681E42FCD129230370FD
:102880002378002BFCD1013323708022D023FA203F
:102890001B06D2025A61400001F040FB80BCB846E2
:1028A000F0BDC046F0B515001F008022D023C646FB
:1028B0001B06520200B59A6180224B4ED2029A61E9
:1028C00073688846191D10331C000123A340326829
:1028D0008900511854682342FCD12A23434C0B70C1
:1028E0002378002BFCD1013323708022D023802158
:1028F0001B06D20249025A6159619A61FEF736F904
:102900002378002BFCD1013323708022D023802137
:102910001B06D20249025A61280059619A61FEF7EA
:1029200025F92378002BFCD1D0238022802101259A
:102930001B06D202490225705A61996171689A6139
:10294000081D10318D403368800018185A681542F0
:10295000FCD12B2303702378002BFCD1013323708F
:102960008022D02380211B06D20249025A614046B0
:1029700059619A61FEF7FAF82378002BFCD10133F4
:1029800023708022D02380211B06D20249025A6183
:10299000380059619A61FEF7E9F82378002BFCD1E1
:1029A000D0238021802001221B06C9024002227010
:1029B00059619861996122CE281D1035AA40800086
:1029C00008184B681342FCD12C2303702378002B8A
:1029D000FCD1013323708022D023D2021B065A611E
:1029E00080BCB846F0BDC0469C0100209801002084
:1029F000F8B5CE46474680B5984608AB1E882B4BA7
:102A000091461B88984242DA294A1488A1423EDA4C
:102A10004A46121880B2934242DB4B469AB2434672
:102A20005B1889B29C4236DB43469BB2CB188218B6
:102A3000013B013A9BB292B2FFF734FFD0238022D0
:102A40001B0652025A618022D2029A614346002B31
:102A500018DD4B46002B15DD0127164C4D46300086
:102A6000FEF784F821780029FCD1013DABB2277034
:102A70002DB2002BF3D14346013B9AB21BB29846CC
:102A8000002AEBD1D02380221B06D2025A61C0BC9F
:102A9000B946B046F8BD641AA3B224B2A046C5E751
:102AA0001B1A9AB21BB29946B9E7C0466E060020BF
:102AB0006C0600209801002000B5074B83B000226F
:102AC0009B5E064A0021525E009000210020FFF725
:102AD0008FFF03B000BDC0466C0600206E060020CC
:102AE000D02380221B065202F0B59A618022D202C6
:102AF0009A61012206004048436801681C1D10339A
:102B00009A40A4000C194B681A42FCD1362323705A
:102B100022C82B00012210339A40384B1C78002C1D
:102B2000FCD10120D024802718702406FF02023037
:102B30006761304002284ED003283CD001281CD0C9
:102B4000802004354002AD0060614D19A7614868DE
:102B50001042FCD148222A701A78002AFCD1013296
:102B60001A70D02380221B06D2025A61F022244B15
:102B70001A80244B50321A80F0BD80200435400268
:102B8000AD0060614D19A76148681042FCD1282250
:102B90002A701A78002AFCD101321A70D0238022C0
:102BA0001B06D2025A61A022154B52001A80154B07
:102BB000503A1A80E0E7802004354002AD006061A1
:102BC0004D19A76148681042FCD1E8222A701A7892
:102BD000002AFCD1E0E7802004354002AD006061AE
:102BE0004D19A76148681042FCD188222A701A78D2
:102BF000002AFCD1B3E7C0469C01002098010020C8
:102C00006E0600206C060020F0B557464E4645463D
:102C1000DE460400E0B5170083B00E008A46591A5C
:102C2000C8170CAA128809184140381B0192C21714
:102C300080181D00B946A44688465040814206DDF2
:102C40003D00A2461F00340080464B466646BC420B
:102C50000BDD5246521BD51752196A40904632007E
:102C60001E00130022003C0017003A1B95B212B25E
:102C7000AA46D50FAD1801226D109146B34201DC72
:102C8000274B994643469BB29846264B9B463B00B2
:102C900047469846814236DC002C0EDB5B461B889B
:102CA000A3420ADD002E08DB1F4B1B88B34204DD64
:102CB00031002000019AFDF781FFEB1B9AB21DB293
:102CC0001B0403D54E44524436B215B2013424B22B
:102CD0004445E1DD03B0F0BCBB46B246A946A04680
:102CE000F0BD21003000019AFDF768FFEB1B9AB29E
:102CF0001DB21B0403D54E44524436B215B2013402
:102D000024B24445E6DC002EF0DB5B461B889E4285
:102D1000ECDA002CEADB044B1B889C42E1DBE5E7A4
:102D2000FFFF00006E0600206C060020F0B545464F
:102D3000DE4657464E46E0B591B01C001AAB1F88E0
:102D400088460025595F85B2E81983B2069393B28D
:102D50009A467B009BB2994653464A4602911BA96C
:102D60000E889A1A4146230012B200B20096FFF76D
:102D70003FFE53465A1EAD18ED1BABB207934346B8
:102D80000122F9184B46D21B12B29346FA03D71B05
:102D900088B2013C7F000299E31A3CB20A909BB2D0
:102DA0000894002900DCA5E15A1C03339BB204936C
:102DB000039300239A4692B20B92D24A431E128882
:102DC0000D935B46D94657468B461500B04609948D
:102DD000CD4C0F934B46002B00DA81E15B46013B63
:102DE0009AB21BB29B46099B059202331AB24B441E
:102DF00009929BB2BAB2571CBEB29246720001321F
:102E00009B181BB29946079B3FB29B1998B21BB205
:102E1000AB4248DA0A9A0599531A9AB20C92BB4A05
:102E20001BB2128893423EDA4D000B998C46AC449B
:102E300061468DB209B28C4663440E919A4207DA1C
:102E4000059D0A9BAC46D21A624413B295B20E930A
:102E50000C9902004B1EEB189BB2FFF723FDD02309
:102E600080221B0652025A618022D2029A610E9B76
:102E7000002B11D04346B0461E003000FDF776FE11
:102E80002378002BFCD1013D0133ADB22370002D1E
:102E9000F3D1330046469846D02380221B06D20247
:102EA0005A61984B1D88079A059B9446634498B2D3
:102EB0001BB2AB4247DA0A9B9B1B9AB20592934A1C
:102EC0001BB2128893423EDA69460C254D5FAC4630
:102ED00063440C95039D9A4206DA0A9B0132D31A89
:102EE00053449DB21BB20C930D9B02009B1BEB182D
:102EF0009BB20599FFF7D6FCD02380221B06520215
:102F00005A618022D2029A610C9B002B14D00123BB
:102F10009A464346B8461F007B4E3800FDF726FE12
:102F20003378002BFCD15346013DADB23370002DF8
:102F3000F3D13B0047469846D02380221B06D2029D
:102F40005A61704B1D88039B02339BB20393BB45B0
:102F500000DD3FE70F9B2A009B466B469B8E0125B9
:102F60009A465B461100684C002B00DAB4E0029BE5
:102F7000013B9EB21BB20293089B02331AB25B4420
:102F800008929BB26A0001329B181BB29B46069BBB
:102F90005B1B98B21BB28B4247DA0A9B9B1B9AB20F
:102FA00094465A4A1BB2128893423EDA0B9F710034
:102FB000B94649448FB209B289464B4403919A42BB
:102FC00005DA0A9BD21AB21813B297B2039363467A
:102FD000013BFB1802009BB26146FFF763FCD02364
:102FE00080221B0652025A618022D2029A6101237A
:102FF0009946039B002B11D04346A8461D0028008C
:10300000FDF7B4FD2378002BFCD14B46013FBFB246
:103010002370002FF3D12B0045469846D023802201
:103020001B06D2025A61374B1988069B9E1BB0B211
:1030300036B28E4259DA53461AB2344B1B889A4242
:1030400053DA049F3EB2B218934204DA0A9A9B1AEA
:10305000EB189FB21EB201235B4253449946FB1802
:1030600002009BB25146FFF71DFCD02380221B06B5
:1030700052025A618022D2029A61002E14D001239A
:103080009A464346A8461D001F4E2800FDF76EFDD8
:103090003378002BFCD15346013FBFB23370002F71
:1030A000F3D12B0045469846D02380221B06D2023E
:1030B0005A614B469BB29A46049B029A02339BB2DA
:1030C00004932BB29A4215DD0E4B013519885B46ED
:1030D000ADB2002B00DB4AE76A469BB2168951E786
:1030E0005A4692B29BB2059284E601235B42534456
:1030F0009946DEE711B0F0BCBB46B246A946A046F1
:10310000F0BDC0466E060020980100206C0600202D
:10311000F0B54546DE4657464E46E0B58DB00493C1
:1031200016AB1B88059317AB1B7898464C4B1B8836
:10313000984267DA4B4B1B88994263DA43465B003F
:1031400043445B001B18002B5CDD4346DB005B182F
:10315000002B57DD43469BB29A4693009A18424B88
:1031600080B2D3180A93002308938BB20B930833D1
:103170009BB2099007900393089B052B00D16CE04C
:103180000A9B1E786B461C229B5E0B9D9B466B46E2
:1031900024229B5E2C0006930123994643461FB2CE
:1031A00012E04346012B34D0049B29B200933A002D
:1031B0003B005846FFF71CFC0134039B5544A4B266
:1031C0007608ADB2A3420CD04B463342E9D1059B01
:1031D000049A9342F0D04346012B2CD0059B29B290
:1031E000E4E7089B0133DAB2099B089201339BB2F2
:1031F0000993079B53449BB207930A9B01330A939D
:10320000062AB9D10DB0F0BCBB46B246A946A046CD
:10321000F0BD06980028CFDB114B1B889842CBDA13
:1032200021B20029C8DB0F4B1B889942C4DA049AEB
:10323000FDF7C4FCC0E706980028BDDB084B1B88DF
:103240009842B9DA21B20029B6DB064B1B889942B5
:10325000B2DA059AFDF7B2FCAEE7002692E7C04667
:103260006E0600206C060020C47D0010F0B5CE462E
:10327000474680B50278040083B0002A23D02A4B49
:103280002A4E99462A4D0EE00D2A09D0092A1FD14F
:10329000274A28491388098804338B4200DA1380AF
:1032A0002278002A0FD001340A2AEDD1224B1F4A7E
:1032B0001B881188DB005B18138000221C4B1A80CE
:1032C0002278002AEFD103B0C0BCB946B046F0BDA9
:1032D0004B460020315E0027E85F174F1B88B84639
:1032E0003F780197154F3F880097FFF711FF43463E
:1032F0001A8829885300D3185B005B1810499BB2C9
:1033000009882B800029CBD00A4908889100511ADE
:10331000490041188B42C3DD3388D200D218002304
:1033200032802B80BCE7C046760600207206002063
:10333000700600206E06002078060020740600202B
:103340007A060020024B1880024B19807047C04655
:103350007006002072060020031C002800D1012303
:10336000014ADBB21380704778060020024B1880B8
:10337000024B18807047C046740600207606002075
:1033800080B203000C3B432B06D889B20B002C3BC8
:1033900037202D2B36D870470300563B452B16D8C7
:1033A00089B20B002C3B38202D2BF4D9353B033848
:1033B0002F2BF0D9343B03382E2BECD9C93989B2E5
:1033C0000C3888428041222398434330E3E70300CE
:1033D000A23B432B27D889B20B002C3B39202D2B45
:1033E000D9D9353B03382F2BD5D9343B03382E2B75
:1033F000D1D9C93989B20D38884280411C239843FC
:103400003D30C8E7353B03382F2BC4D9343B033854
:103410002E2BC0D9C93989B20B38884280410F237D
:1034200098433030B7E70300ED3B2020462BB2D85D
:1034300089B20B002C3B0B302D2BACD9353B023025
:103440002F2BA8D9343B4B302E2BA4D9C93989B2A4
:103450005238884280410E2398432F309BE7C04664
:10346000094A830094464022634410B51C68C0009A
:103470006240C02414408022520113431C60034B5D
:103480009C466044416010BD04C0014000400140C2
:103490000A4B80009C4604236044002901D00C2381
:1034A0000821002A00D10B00026853400C221A4068
:1034B00080235B01184302607047C04604C001408E
:1034C000074BC0009C466044036809025940C02372
:1034D0009B00194080235B01184301607047C04680
:1034E00004400140084B80009C466044002905D000
:1034F00080239B011843402303607047C0239B0136
:10350000184340230360F8E704C001400123D022A0
:103510008340120693629361094A830094464022D5
:1035200063441968C0004A40C02111408022520102
:1035300013431960034B9C46052360444360704766
:1035400004C0014000400140024B18688007C00FD2
:103550007047C04600C00640EFF3108072B6034AC1
:103560001368002BFCD0BFF35F8F70472C0100D095
:10357000BFF35F8F0022024B1A6080F31088704700
:103580002C0100D070B5EFF3108C72B60D4D2B6886
:10359000002BFCD0BFF35F8F0724CB08C618C05C9C
:1035A00001230C40A3401C000440034207D1034305
:1035B0003370BFF35F8F2C608CF3108870BD1000E8
:1035C00001F0A2FB2C0100D00021044B044ABFF300
:1035D0005F8F02C39342FAD17047C046000100D00A
:1035E000800100D0044A1078431CDBB2172B00D9AD
:1035F000102313707047C046A801002001238340A8
:10360000002904D0034A1360034A13607047034A39
:103610001360FBE780E200E000E100E080E100E011
:10362000024B10309B688000C058704700ED00E0EE
:1036300070B50D00EFF3108672B60F4A1368002BB9
:10364000FCD0BFF35F8F0D4B10309B6884001B597B
:103650000B4A934203D09D4201D001F06DFB074B12
:103660009B681D51BFF35F8FBFF35F8F0022024B3A
:103670001A6086F3108870BD240100D000ED00E0D0
:10368000CD010010F0B5DE4657464E464546E0B542
:103690000C0083B0EFF3108972B6584A1368002B00
:1036A000FCD0BFF35F8F564B9A68030010339F0026
:1036B000D559544A9046954232D0A54243D0524EF5
:1036C000AA1B2F2A2CD801228240924651464F4AEB
:1036D00012681140019151464D4A1160BFF35F8F4E
:1036E000EFF305829346002A33D101232A009A433F
:1036F00093689C4208D177E04B005B189B00F3185D
:103700009968A1422AD01A00062151560029F3DAFD
:10371000019B002B19D052463E4B1A603B4B1A605E
:10372000374B9B68DD51BFF35F8FBFF35F8F002284
:10373000324B1A6089F3108803B0F0BCBB46B24626
:10374000A946A046F0BD1500EAE75246304B1A6084
:10375000E6E79342C9D001F0EFFAC6E706215956D1
:10376000002921DB4A005018800034188046A068E8
:103770009860E079D871062020569871002824DBE3
:10378000A488F01A6405241544440019E0240005B7
:10379000400D24022043988052181F4B9200B61807
:1037A0001A781970B271B3E7594600290FD1FF3169
:1037B00091711A49918018490A789A71184A9B1B8D
:1037C0005B415A43120D0A70A2E71648E3E7164A16
:1037D0001649D21A083A5002400D01439980144903
:1037E00052080A43DA8093E7062151561300002954
:1037F000B8DA5A46002AEAD14546DCE7240100D06F
:1038000000ED00E0CD010010AC01002000E100E07F
:1038100080E100E080E200E07D06002001BDFFFFC6
:10382000AAAA000001BD0000E601002000F0FFFF91
:1038300000F8FFFF70B5EFF3058101240443EFF3B7
:10384000108C72B6214A1368002BFCD0BFF35F8F37
:103850001F4B05001F4AED1A6D416A43120D1E4DA4
:103860008900AE6852B27658A6421CD0062159563D
:1038700091421CD012215956914222D01E215956F4
:10388000914220D02A2159560324914210D0134B43
:1038900019781A708171BFF35F8F00220B4B1A6089
:1038A0008CF3108870BDAB680D4C5C50EFE70024C2
:1038B0006100091989005B18FF21997109499980F4
:1038C000E5E70124F4E70224F2E7C046240100D032
:1038D000AC010020AAAA000000ED00E07D06002057
:1038E000CD01001001BDFFFF054B064A1360064ADB
:1038F000136053609360D3601361536193617047A9
:103900008080808000E400E004E400E0024B9C46FC
:1039100061448900016070474000003410B5040024
:10392000FFF760FE01002000FFF7F0FFFF23237187
:10393000BFF35F8F10BDC04610B50400FFF752FE05
:1039400001002000FFF7E2FFFF23A380BFF35F8F9A
:1039500010BDC04683680B4810B58446614462447C
:10396000090112019A18591854684B6801209C42A9
:1039700001D802D00020C0B210BD12680B689A4274
:10398000F9D8F7E7FFFFFF0F0A4B1968EFF3108034
:1039900072B60A68002AFCD0BFF35F8F1B68BFF3C2
:1039A0005F8F00221A6080F3108840BF0020002142
:1039B0007047C04650060020F8B557464E4645466B
:1039C000DE46E0B599460CAB1C780DAB1B780600C3
:1039D00090469A460768002C11D1BC7B002C42D03F
:1039E00065003B682D19033D59194B78BB73002BBB
:1039F00000D1FB7300238B704B700B7004E06500EB
:103A00003B682D19033D5919B2682A4B944642462A
:103A1000E3181B0163441A604A465A600A9A9A6086
:103A20000B9ADA6000238B704B700B707B7B9B468C
:103A3000002B2BD022005946B8687B6898473A681B
:103A4000002816D05B4658465B005B445519033B83
:103A5000A870D118D35C002B00D06B705B460C7043
:103A60007B73A34513D0F0BCBB46B246A946A04623
:103A7000F8BD5B465B005B44033BD3189C70511957
:103A8000525D002A00D05A705B460B707C73424630
:103A90004B46307D00F0BAFB051E06D05346002B86
:103AA00003D12100306800F0D5FD0E9B002BDAD049
:103AB0001D70D8E7FFFFFF0FF0B5DE4657464E46B4
:103AC00045460023E0B58BB00893674B8200D4587D
:103AD00000239B46099000F00FFB626806000F0070
:103AE000EFF3108572B61368002BFCD0BFF35F8F25
:103AF00023689C465B7B9946002B00D169E0A26855
:103B00005A4B90464B441B01984443461A685B68E5
:103B100010001900801BB941002900DC63E00998FE
:103B200000F074FB002300229846002306920793BE
:103B300000239A466368BFF35F8F5A461A6085F385
:103B400010885346002B08D10028C4D10BB0F0BC1C
:103B5000BB46B246A946A046F0BD089B41461802A6
:103B60004B461843D047626806000F00EFF31085FC
:103B700072B61368002BFCD0BFF35F8F002F50DBB1
:103B800033003B4302D02369002B61D12368D97BEA
:103B9000002907D04A00521819688C4649466244E9
:103BA000033A51709A7B002A01D14A469A734A46D9
:103BB000DA734B46E168013BCA5C0132CA545B468A
:103BC00023616368BFF35F8F5A461A6085F31088DC
:103BD00081E70023002298460023069207930023E2
:103BE00000209A46A6E7002902D1002800D096E7D7
:103BF0000021604600F0ACFC43461A685B68069200
:103C0000079343469B689A464346DB689846E368B9
:103C10004B44013B1B7808931B02034323610020A4
:103C200088E72369002BB1D0069A079B921BBB4102
:103C3000002B15DB5946049101210391494602915D
:103C400041460191514620000091FFF7B5FEB6E7CD
:103C500000F052FA32003B0012184B41002BE9DA17
:103C60000122034B5242E5E73C060020FFFFFF0F15
:103C7000FFFFFF7F10B5144C6368002B04D00A21AE
:103C80001248FFF743FE10BD2300114A102120689F
:103C900000F078FB032000F023FA032000F020FB63
:103CA00003200C4900F06CFAFFF79CFC0A4B9C4681
:103CB00003232375D0231B061B6860446375074BE1
:103CC00080006060DC60DAE7F4010020500600202C
:103CD00055390010B93A0010400000343C0600206D
:103CE000F0B54E464546DE465746E0B585B00193F1
:103CF00010AB1B7806000393002399469846009268
:103D00007268EFF3108B72B61368002BFCD0BFF310
:103D10005F8F3568AC7B002C3DD067002B683F1966
:103D2000033FDB195A78AA73002A00D1EA73B168FD
:103D3000474A8C4600980199A2181201624410600B
:103D400051600E9991600F99D16042469A705A70F5
:103D50001A706B7B9A46002B67D022001900A86866
:103D60006B6898472A68002852D0534650465B003B
:103D70005344D719033BB870D118D35C002B00D043
:103D80007B7053460C706B7354454FD0F3681B190E
:103D9000013B187800E000207368BFF35F8F424654
:103DA0001A608BF31088002C4FD04B46002B08D1A3
:103DB0000002204305B0F0BCBB46B246A946A0466F
:103DC000F0BD039B002B3ED00E9B00200F9998471F
:103DD000030004000D000B4335D000290ADA009AD5
:103DE000019B121BAB4100920193002B0ADB039B4A
:103DF000994685E700F080F924184D41009401951B
:103E0000002DF4DA0123134C5B4200930194EEE79A
:103E100053465B005344033BD3189C70D119D25DC9
:103E2000002A00D05A7053460B706C73307D009A94
:103E3000019B00F0EBF981460028A7D021003068F3
:103E400000F008FCA2E70020B4E701204042B1E7FF
:103E5000FFFFFF0FFFFFFF7FF0B504000D000626F8
:103E60007642F717C64636196F4100B584B08F42C7
:103E700014D811D000F040F932003B00121A8B41E7
:103E8000002B15DC002B3ED02000290000F068F943
:103E900004B080BCB846F0BD8642EBD900260027AE
:103EA00000F02AF932003B00121A8B41002BE9DDA9
:103EB000002302930193154B3200009314483B00FA
:103EC000FFF70EFF0028DFDB00239846BC46114AAF
:103ED000114F7B6A9C4504D8B96A8E42D4D99C455F
:103EE000D2D11168EFF3108072B60B68002BFCD0B2
:103EF000BFF35F8F1368BFF35F8F4146196080F394
:103F0000108820BFE5E7002ABED0D1E7893900102C
:103F1000F4010020500600200040054070B5060066
:103F200000F0EAF8FA2204000D000023300000211E
:103F3000920003F087F800196941002902DBFFF7BE
:103F40008BFF70BD012001494042F8E7FFFFFF7F72
:103F5000F0B5EFF30583CE46474680B505000C006B
:103F600085B0002B12D02C4A0020536A9C4203D803
:103F7000926A0130AA4204D305B0C0BCB946B0462B
:103F8000F0BDE01A421E9041C0B2F5E7234E029305
:103F90000193234B0200009330000B00FFF7A0FEBB
:103FA000031EE0DD20BF7168EFF3108772B60A6868
:103FB000002AFCD0BFF35F8FDAB294463068427BB0
:103FC00062451DD0FF221A40510089460168914484
:103FD00088464946414403398978002913D0F1685D
:103FE0001B0A88464244013A1278DBB29A420FD04B
:103FF0007368BFF35F8F00221A6087F31088B2E7FF
:10400000FF221A40EBE732699342F1D13161EFE7C9
:10401000614600F01FFBEBE700400540F401002083
:1040200089390010F0B5EFF30582D6464F46464673
:104030001000C0B51038EFF3108872B6214C236819
:10404000002BFCD0BFF35F8F0123190081401E4D70
:104050001F006963AA461D4D29601D4D2E78AC4690
:104060003500C5402F402B4209D1BFF35F8F276039
:1040700088F31088E0BCBA46B146A846F0BD534666
:10408000144D5F6A83005D59AF420ED3124A8E43CE
:104090009B5862461670BFF35F8F0022226088F340
:1040A0001088002BE6D09847E4E70C4B92009C4622
:1040B000624413681360BFF35F8F0023236088F3AB
:1040C0001088D7E7280100D0004005403C7005402B
:1040D0007E06002054060020AC050020D03F05409D
:1040E00010B50100024A0348FFF74CFA10BDC04664
:1040F000D48200107C060020034B596A0A00986A9B
:10410000596A8A42FAD170470040054070B50400F0
:104110000D00124A536A1900966A536A8B42FAD10B
:104120003000190024184D41AB4211D80ED02B009D
:104130000A494A6A9A42FCD307D1084A02E0516A06
:10414000994202D1916AA142F9D370BDA642EED93B
:10415000012301246442E5175B42E9E70040054082
:10416000064A536A9942FCD807D1044B02E05A6AC6
:10417000914202D19A6A8242F9D3704700400540C9
:1041800070B504000D00EFF3108672B61A4A13687A
:10419000002BFCD0BFF35F8F002D1BD02000FFF75A
:1041A0003FFA164981420AD02000FFF741FA012167
:1041B0002000FFF723FA0123A340114A1360114B9B
:1041C000A400E550BFF35F8F00220B4B1A6086F30B
:1041D000108870BD0B4BA200D5500122A2400A49A5
:1041E00020000B7893430B700449FFF74BFA002132
:1041F0002000FFF703FAE5E7280100D02540001072
:1042000038600540AC0500207E060020F0B54F4622
:10421000D6464646C0B507002C4C616A0D00A66A1A
:10422000616AA942FAD18B4208D805D00120E0BCCE
:10423000BA46B146A846F0BDB242F7D9EFF3108AAC
:1042400072B6234801680029FCD0BFF35F8F0125B7
:10425000BD4020491D4C8846097889462943C9B28A
:104260008C46414660460870391D1B4889006563CD
:104270000A51B9000B50216A0020294219D0616A05
:104280000800A66A616A8142FAD18B4219D801D12D
:10429000B24216D8CC4516D00C4B1F201D625D6370
:1042A00001230740BB400D4A1E38136043464A466F
:1042B0001A70BFF35F8F0022054B1A608AF31088D3
:1042C000B5E70020F5E70120F3E7C04600400540D0
:1042D000280100D07E0600205406002080E200E085
:1042E000EFF3108C72B60A490B68002BFCD0BFF3B9
:1042F0005F8F01238340074A0748136202789A437D
:104300000270BFF35F8F00230B608CF3108870473F
:10431000280100D0004005407E06002070B5050051
:1043200014001600002915D00C00002A12D0806855
:104330006B689847296800280ED073009B196200AB
:10434000033B1219CB18033A9C7088188A5C002A28
:1043500015D10670200070BD63001B197200033B6D
:104360009219CB18033A9E7088188A5C002A02D1F1
:1043700004703400EEE75A7004703400EAE75A70B3
:104380000670E7E730B583600023CCB24373013396
:10439000047342608373C4730D000068012C06D956
:1043A000421C0133DBB2137003329C42F9D1FF216E
:1043B00029404B005918002340180338437030BD82
:1043C000F8B5CE46474606000C0080B5002907D058
:1043D0004D0003686D18033D5A195778002F04D11A
:1043E0002000C0BCB946B046F8BD7900C9190339F0
:1043F0008846434459788946002159705170736842
:104400003A002100806898473368002814D042465B
:104410009A18947059195B5D002B00D053700F707F
:10442000270049463000FFF7CBFF3900020030007B
:10443000FFF774FF0400D3E7424641465D19AF70B1
:104440009A185B5C002B00D06B701470E9E7C046D3
:10445000F0B557464546DE464E46E0B50D006B00CA
:1044600001685B19DF1E0400C85D83B00192CA19A0
:10447000002850D043001B18033BCB185E78B4468D
:10448000002E1AD1019E002E42D0E67B002E04D0D1
:1044900073009B19CB18033B5D70A37B002B00D1ED
:1044A000A573E57300282FD10023537003B0F0BC2F
:1044B000BB46B246A946A046F0BD72006244033A2C
:1044C00089184A78904600224A7091465A70010035
:1044D00032002000FFF722FF43468246002B07D020
:1044E0005B0021684344033BCB185A78002A16D15D
:1044F000424651462000FFF711FF2168019BCA196F
:10450000002BC2D10028CFD043001B18033BCB188F
:1045100000219970C8E7019B002BB6D1C4E7500079
:104520008018033809184878834648464870587000
:1045300041462000FFF7F2FE594680462000FFF773
:104540003FFF414602002000FFF7E8FE8046CFE72C
:10455000F0B557464546DE464E46E0B583B001917C
:10456000457B04006B0000685B19DF1EC15DC2194A
:10457000002952D04B005B18033BC3185E78B44649
:10458000002E1CD1019E002E44D0E67B002E04D0CC
:1045900073009B19C318033B5D70A37B002B00D1F4
:1045A000A573E573002931D100232800537061738E
:1045B00003B0F0BCBB46B246A946A046F0BD7200AF
:1045C0006244033A80184278904600224270914635
:1045D0005A7020003200FFF7A1FE43468246002BAE
:1045E00007D05B0021684344033BCB185A78002A6C
:1045F00017D1424651462000FFF790FE019B010073
:104600002068C219002BC0D10029CDD04B005B1807
:10461000033BC31800209870C6E7019B002BB4D160
:10462000C2E7500080180338091848788346484686
:104630004870587041462000FFF770FE594680468A
:104640002000FFF7BDFE414602002000FFF766FE96
:104650008046CEE770B5040000292CD0437B8B4206
:104660002ED0056848004018033828188278002AA0
:1046700021D053009B18033BEA5CEE188A4202D11A
:104680001BE0002A08D053009B18033BEB185A7814
:104690008A42F6D142785A70002301228370437017
:1046A0002000FFF7D5FE617B02002000FFF736FEF9
:1046B0006073012000E0002070BD43783370EBE7A9
:1046C00001221900FFF7C4FE60730120F4E7C04621
:1046D000F8B5CE464746040080B506200E0000F02F
:1046E00023FA051E51D0524B5249E21853425A4107
:1046F0008023DB039C4692054F4B62441A604F4B6C
:104700001A6010008B689843FBD1494B8021E31855
:104710005A4253414A4A5B0049009952062000F030
:1047200003FA3100C00001F06FFEC30932D140220C
:10473000012190466162A362256BEB0736D4270006
:104740008026E36A00232C3776013E43336006203F
:10475000256300F0E9F94146800001F055FE236B26
:1047600005009846DB073BD46022E36A5A406E237B
:104770001340336043462363802310229B013B4355
:104780001A60304B23630323A3642800C0BCB946DE
:10479000B046F8BD2C4A93423FD900232B492C4AFE
:1047A0006162A362256B9046EB07C8D52200C02347
:1047B00030329B011343234A06201A60666AA26ABC
:1047C000B601B61800F0B0F9224901F01DFEB6029C
:1047D0000100300001F018FE0021FFF797FCAEE762
:1047E0002200C02330329B011343164A06201A6070
:1047F000636AA26A9B019946914400F095F94B4681
:1048000014499B02994601F0FFFD0100484601F062
:10481000FBFD0021FFF77AFCA6E77F22990188467D
:1048200010400130400819008044030082E7C04670
:104830000080FCBF00C0004000E0004000F00040ED
:104840006406002001030000FEFF0000FFFF0000DF
:10485000C0FF3F004E0E000030B50C2083B000F0CA
:10486000B9F9FEF771FE00280ED0994B994A1A60EB
:104870005A609A60DA601A615A619A61DA611A6262
:10488000954A5A6203B030BD944CA06700F0AAF973
:104890000122934B1A60636C012BFCD10322914BD4
:1048A0001A608E4A936B012BFCD1013301218E4A91
:1048B0008E480093043300F03DF905238C4A0093A1
:1048C00001218C4800F036F98B4B5A68FF2A02D838
:1048D000802252005A6080227D4C824B2169120155
:1048E000854D1A60002907D0606901F08DFD431CD9
:1048F0005800C0180338FDD2E0217F4B02201A680F
:104900001140802252012A43116019684840032156
:104910000140116004219A681142FCD0802280215C
:1049200092012A4309011160802252005A60734BA0
:104930002361734B5968FF2900D85A600321684AE4
:104940006F4B116002399A681142FCD0E0201A685E
:104950001040802252011A43106018684840032119
:1049600001400220116066498A681042FCD0802212
:1049700092011343802212011A608022614B52007F
:104980004A606361604B5968FF2900D85A608022F1
:104990005E4BE16912015C4D1A60002907D0606925
:1049A00001F032FD431C5800C0180338FDD2E0224C
:1049B00055490B681A4080235B012B431A60802302
:1049C00080229B012B4312011A608022414B52002E
:1049D0004A60E3614E4B5968FF2900D85A60802233
:1049E0004C4B216A12014A4D1A60002907D06069B8
:1049F00001F00AFD431C5800C0180338FDD2E02224
:104A000043490B681A4080235B012B431A608023C3
:104A100080229B012B4312011A60802380225B00BD
:104A20004B602C4BD20223623B4B5968914200D21F
:104A30005A608022394B616A1201374D1A60002991
:104A400007D0606901F0E0FC431C5800C01803382F
:104A5000FDD2E02230490B681A4080235B012B43D2
:104A60001A60802380229B012B4312011A6080234D
:104A7000DB024B60184B6362294B5A68FF2A02D84D
:104A8000802252005A608022264BA1691201244DD7
:104A90001A60002907D0606901F0B6FC431C580079
:104AA000C0180338FDD2E0221D490B681A4080234C
:104AB0005B012B431A60802380229B012B43120150
:104AC0001A6080235B004B600E4BA361DAE6C046A0
:104AD000C4050020006CDC021BB700000080004011
:104AE0003CB0004030B00040002F685900800240C8
:104AF000008C864700C0024030800040001BB70099
:104B00003C800040405973075480004054B000403E
:104B10006080004060B000406C8000406CB000409D
:104B20004880004048B00040014B8000C0587047AA
:104B3000C4050020F8B5040021481D0017000E0030
:104B400001F062FC0100380001F05EFC069B2904C4
:104B50001B0319432368002B20DB1A4B1A4DE21864
:104B600053425A4180235B019C461203174B624417
:104B70001A60174B1A601700AB689F43FBD1C02225
:104B8000231D92011A4321232660A060136023682D
:104B9000002BFCDA0823E1601360F8BD3F23226894
:104BA0001340B342D9D1A3681B051B0D8342D4D156
:104BB000EE22E368D20213408B42CED1EDE7C0462D
:104BC000001BB7000040FDBF00C0004000E00040F7
:104BD00000F000408023024A9B000343D3627047E9
:104BE00000800540AA23064A1B0113602F230549B4
:104BF000D360054B19605368002BFCDA7047C04640
:104C00000040024000B0FA00006002402C4B2D4AE8
:104C100070B51A602C4A2D4B2D491A6014008B6810
:104C20009C43FBD12B4D2C4EB54208D2013E761B46
:104C3000B60808CD984723000134B342F9D1FFF7F5
:104C40000BFE264A214B1A60214A9368DB43DB01A5
:104C5000DD09002BF9D14022214B224C224E9A67CC
:104C60005A671A67DA66B44208D223682000002B1C
:104C700020D00834FEF760FEB442F6D31B4E1C4C25
:104C8000C022A168300002F0FFFAA660FEF79CFC8B
:104C9000FEF72AFEFEF7EEFF164C174EB44208D27E
:104CA000013E361BB60808CC98472B0001359E42C2
:104CB000F9D170BD0834FEF731FEB442D5D3DDE73B
:104CC00000E00040BFCDFBFEFE7F3C0000F0004056
:104CD00000C000406002002070020020FFFFFF01C2
:104CE00000F0014058020020600200200000002077
:104CF00000ED00E0700200207802002000BEFDE719
:104D000010B5FFF7FBFFC0460FB400B5084883B0ED
:104D100002F01EFC049B002B07D005A9180001918E
:104D200001F0F2FA034802F013FC0120FFF7E6FF5E
:104D3000F88200107C7C001010B50148FFF7E4FFFA
:104D4000088300109A4200D2885470477047C046CA
:104D5000F8B557464E464546DE46E0B599460A9BAD
:104D600007009A460D9B8846934615000B9E9B07AD
:104D700010D10C9B9E420DD29D1B14000E005D4471
:104D800022004B46013431002020B847A542F7D11C
:104D9000B0460B9E002E27D0444675195346AA1BD9
:104DA000013E985D21004B46B847002EF6D1230006
:104DB0002C0098460D9B9B070FD55B46E51A0C9B74
:104DC000AB420AD94646984622004B463100202085
:104DD0000135B8470134A845F6D82000F0BCBB46E1
:104DE000B246A946A046F8BD2C00E3E7F0B54F4611
:104DF0004646D646C0B584B098460EAB1B78129F87
:104E0000994694460D9C109B119EBA0725D4002EFE
:104E10004BD19C4200D3BFE001223A4092461F2C66
:104E200000D9B8E00C9A551E302201E0202C03D0A6
:104E300001342A55A342F9D85246002A0DD0A64281
:104E40000BD9202C44D00C9A551E302201E0202C86
:104E50003ED001342A55B442F9D1FA064DD57A052F
:104E60003FD4002C39D10F9B102B00D179E00F9B40
:104E7000022B00D18AE030230C9A012413704B4698
:104E8000002B3FD02D230C9A135501340C9B624606
:104E900000930397434602960194FFF759FF04B02D
:104EA000E0BCBA46B146A846F0BD012215003D401F
:104EB000AA463A422FD04A46002A02D10C323A4240
:104EC00000D0013E9C42BAD21F2CABD9202E27D94C
:104ED0002024FA06DAD57A0503D4A3422DD0A642BF
:104EE0002BD00F9B102B32D0022B20D0202CCDD0DA
:104EF00030220C9B1B191A700134202CC6D04B4653
:104F0000002BBFD17B070DD43B07BFD520230C9AC4
:104F100013550134BAE79C429FD21F2C00D881E779
:104F200020249AE72B230C9A13550134AEE7202C4A
:104F3000ACD00C9B1B1901343AE0631E012C92D0BB
:104F40000F9A102A2AD0022A2FD01C00D0E7BB06C5
:104F50000ED4202C9AD00C9B1A190134782313708C
:104F6000C4E7BB060DD478230C9A01241370BFE765
:104F7000202C00D18AE758220C9B1B191A7001348F
:104F8000B4E758230C9A01241370B1E70C9A6033EC
:104F900001241370ACE7202400265EE7023CBA0629
:104FA000E9D40C9A12191C00D8E70C9A9246534483
:104FB00062221A709AE7C04610B5002800D110BDD1
:104FC00002F07AFAFBE7C0460B0010B5002802D0C9
:104FD00049681B68984710BDF0B5DE4657464E46F7
:104FE0004546E0B59BB09B46249B89469846259B49
:104FF0000B900C924046424619009A4601F0CDFCB7
:10500000002800D0D8E0012240465146774B52425A
:1050100001F0BEFC002800D0CEE0012240465146FF
:10502000734B524201F09EFC002800D0C4E00022E5
:1050300000234046514601F095FC002800D0B9E11C
:10504000424653460A9209938023289ADB001A406D
:105050000E92289A1A4201D1062326930A9A099B96
:105060001600134300D0C7E0289B002500261B052F
:1050700000D49BE100230D93269A0D9B9A4200DCFD
:105080009FE1D01A431E26938023289ADB001A43FF
:105090000023002728920D93279B0024BB4200D9B0
:1050A000DC1B0223289A1A400E92289A134203D03E
:1050B0007B427B415B421C400D9B002B07D00A9832
:1050C00009992A00330001F0ECFB0A9009910022B3
:1050D00000234046514601F045FC002805D08020C1
:1050E00000068446099961440991289A414B0B9D19
:1050F00013400493269B0A9A0293099B03940092FF
:10510000019349465B4628000C9A00F08BF9040095
:10511000002F62D0289B220098061F23C0179843B7
:10512000631C984649465B466530A8470D9B0025A1
:10513000DA179C18DB0F9A465440013F01E0202DFE
:1051400013D00AAA94461F23200063440A21013584
:105150005E1901F059F93031317020000A2101F057
:1051600053F926000400092EE9D8052306930023ED
:1051700004930A330393534605970B9F029312AB94
:10518000009342465B46494638000195FFF72EFEE4
:105190000E9B0400002B20D00C9BC51A279BAB4212
:1051A0001BD91E0022005B46494620200135B84726
:1051B0000134AE42F6D810E0289B42460493279B68
:1051C00049460393269B0B98029353460092019302
:1051D0005B460C9A00F026F9040020001BB0F0BCDE
:1051E000BB46B246A946A046F0BDC046FFFFEF7FD2
:1051F000FFFFEFFFFFF7FFFF734B099F9C4678000F
:10520000400D604401F0DCFB704A714B01F067FB1C
:10521000704A714B01F03CFB3B03704A1B0B1A4375
:1052200004000D00300011006D4B002201F027FB3F
:105230006C4A6D4B01F053FB02000B00200029006B
:1052400001F026FB01F0D4FB0D9001F0B9FB674A99
:10525000674B04000D0001F042FB0022654B01F09A
:1052600017FB01F0C5FB644A0600644B20002900CF
:1052700001F035FB040030000D000F9601F0A0FB9B
:105280005F4A604B01F02BFB02000B00200029005D
:1052900001F0F5FA02000B0006000F0001F01FFB01
:1052A000320004000D003B003000390001F0F0FA3C
:1052B000002210901191544B2000290001F0F1FAC6
:1052C0000022524B01F0E4FA02000B0020002900FA
:1052D00001F0E7FA00224E4B01F0DAFA02000B006F
:1052E0002000290001F0DDFA0D00802104003200C9
:1052F0003B000020C90501F0C2FA02000B002000AB
:10530000290001F0C5FA02000B001098119901F074
:10531000C8FA0022314B01F0BBFA3E4B0F9C9C4671
:1053200064440022230501F0DAFA05000E000200B1
:105330000B000A98099901F015FB00280AD00D9B73
:105340002800013B31000D930022304B01F0A9FAF7
:1053500005000E00C6270D992B0063318F42BF4117
:1053600028997F420437090500D495E6334300D1DC
:1053700082E6099C284A2100284B0A9801F000FB8C
:10538000002808D000222100254B0A9801F0EAFAF3
:10539000002800D070E6269B002B00D17CE60E9BF7
:1053A0005A1E9341269AD31A269375E600230427A2
:1053B0000D9371E643460A9380231B0653440993D9
:1053C00042E6002326935FE601FCFFFFFB799F5036
:1053D0001344D33FB3C8608B288AC63F0000F03F18
:1053E0000000F83F61436F63A787D23F71A379093B
:1053F0004F930A400000E03F1655B5BBB16B024029
:10540000EF39FAFE422EE63F00002C400000244017
:1054100000001840FF0300002D431CEBE2361A3F4A
:1054200080842E41F0B54E46DE4657464546E0B5EF
:1054300097B09946209E219F229B834698460791CC
:105440000C923B0032003000390001F0A6FA00282F
:1054500000D0A9E1012230003900CA4B524201F0CC
:1054600081FA002800D0E1E0012230003900C64B6B
:10547000524201F08DFA002800D0B7E0002230003F
:105480003900C24B01F084FA002800D099E00022D4
:1054900030003900BE4B01F065FA002800D090E0E2
:1054A000002200233000390001F05CFA002800D00F
:1054B000B1E000230D93249B5B0501D4062398469D
:1054C00008AB9C461722002430234146624404E086
:1054D000013413550139202C01D00929F8D8884608
:1054E0003000390001F084FA4346DA00A94B050088
:1054F0009B181A685B680892099301F061FA020030
:105500000B003000390001F0BAF9089A099B01F04C
:10551000E6F90A900B9101F08FFA824601F04CFAFD
:1055200002000B000A980B9901F0A9F900229A4B8E
:105530000A900B9101F02CFA002800D1C0E0012361
:105540009C46E244504601F037FA02000B000898EE
:10555000099901F00DFA002802D000239A4601357E
:105560004346002B6AD008AB17269C460895664434
:10557000554614E001235B4243440A2128009A4621
:1055800000F042FF013430313719397028000A2108
:1055900000F03AFF092D00D8D0E0D0460500202CBD
:1055A000E8D10EAB98460323249A1340012B00D177
:1055B00096E02023249A01930392239A4346029271
:1055C0001EE0249B58460493239B00960197039367
:1055D00043460C9A029307994B46FFF7FDFC17B020
:1055E000F0BCBB46B246A946A046F0BD249B5B0773
:1055F0000ED40322694B24990192039123990291BD
:10560000009358464B460C9A0799FFF7A1FBE6E733
:105610000422634BEFE73B0032000020002101F041
:105620002EF9012306000F000D9344E7249B0393FA
:10563000239B0293042301935A4BE1E7280001F0D6
:10564000BFF902000B003000390001F018F9524B8D
:10565000002206000F0001F085F90EAB98460028E5
:105660000AD10022300039004B4B01F091F900289B
:1056700002D1EB0700D50135202C94D008AA94461E
:105680001723280063440A2101341E1900F094FEF8
:105690003031280031700A2100F08EFE051EEBD15A
:1056A0000323249A1340012B1BD0202C00D180E728
:1056B0000D9B002B35D02D224146631C0A5579E7FE
:1056C00000220A980B99344B01F04CF9002800D0C5
:1056D00046E75346002B51D101239C46E2443FE765
:1056E0002024239B002BE0D00D9B002B03D1249A78
:1056F0000C33134202D0239B013B2393239BA342F1
:10570000D3D908AB9C46172230236244202C00D109
:105710004FE72399013413558C42C6D0202CF8D181
:1057200047E7249B5B0724D4249A2300120700D464
:1057300040E72022414601330A553BE75746089D82
:10574000202C00D12DE7220030214046002F09D027
:105750000132B154202A00D123E7D3431B191B186F
:10576000002BF5D10EAB98462E234146541C8B548A
:1057700082E72B224146631C0A551BE7DB0700D456
:10578000EEE6A9E7FFFFEFFFFFFFEF7F65CDCD411D
:1057900065CDCDC1108500100000E03F14830010DE
:1057A0001883001024830010249B0393239B0293EF
:1057B00003230193004B23E720830010F0B5DE465E
:1057C0004E4657464546E0B59FB01C00289B914683
:1057D0000993C94AC94B8B4608901A60002900D129
:1057E00018E2002320789A46002800D11AE2260009
:1057F0001D005C460AE02A006F1C4B46089D2100F4
:10580000A8473D0001363078002870D02528F2D115
:1058100010239B46083B9A46043B9846023B0021D6
:105820009C46721C107816000300203BDBB2102B44
:1058300003D8B34F9B00FB589F460300303B092B16
:1058400032D900230A932A2868D0002398462E28AC
:105850003ED00300683BDBB2122B1CD8A94A9B0048
:10586000D3589F46012301321943DBE763460132D7
:105870001943D7E7434601321943D3E75B46013268
:105880001943CFE7534601321943CBE780235B002E
:105890007078194301360300253BDBB2532BAAD89D
:1058A000994A9B00D3589F4600270300B800C019AF
:1058B00001364000C018337830381A00303A0700FB
:1058C000092AF3D90A901800002398462E28C0D13F
:1058D00080237078DB0019430300303B721C092BD6
:1058E00000D8A1E12A2800D1B2E11600B1E7A34611
:1058F000AA462C00D14503D801235B424B449A466B
:105900004B46524659460020089DA84720001FB02C
:10591000F0BCBB46B246A946A046F0BD099B40CBB1
:105920000A96002E03DB50780993561C8DE7283821
:10593000014370420A9009935078561C85E77828F5
:1059400000D1DFE1582800D14CE26F2800D14FE3AD
:10595000622801D100F030FC10230A009A430B9218
:10596000692801D000F0A9FC0A230C934B0500D54F
:10597000D0E10B9A802311009B0019408B461A42FC
:1059800000D0A1E2802311005B0019408A461A4230
:1059900000D0B6E313005B0600D5EDE213000999D1
:1059A0001B0601D400F076FC08C91BB2D8171A18E0
:1059B000424092B209919346DA0F1292002B09D11C
:1059C000802310220B99DB000B4091430B91002B9D
:1059D00000D0E4E20B9A6123920600D541230EA980
:1059E0001F228C46DBB262440A3B5F461395A346F6
:1059F00055460C9CB2460D9316000AE03033DBB2DC
:105A000001357355A74200D2EDE2202D00D1EAE224
:105A100007002100380000F0F7FCCBB20929EDD9CE
:105A20000D9A94466344DBB2EAE780239B007078CA
:105A3000194301362FE77078682800D1CDE1802323
:105A40000136194327E770786C2800D1BFE1802325
:105A50005B00194301361EE7462800D19BE107226F
:105A6000099B0491073393430A9A19000392424613
:105A700002920CC908980092019309912A004B46A2
:105A80002100FFF7CFFC01360500BCE62A006F1CA1
:105A90004B46089D21002520A84701363D00B2E66F
:105AA0008B0700D4ADE1099B2A009A466B1C9846EF
:105AB000534601CB21009A46089F4B46C0B2B847D7
:105AC0000A9B9C466544012B00D886E2089B47460A
:105AD000B04626004C4699463A0023000137310073
