:020000041000EA
:1000000000B5324B212058609868022188439860DF
:10001000D860186158612E4B002199600221596106
:100020000121F02299502B49196001219960352056
:1000300000F044F80222904214D00621196600F024
:1000400034F8196E01211966002018661A6600F04E
:100050002CF8196E196E196E052000F02FF8012189
:100060000842F9D1002199601B49196000215960AB
:100070001A491B48016001219960EB211966A021F2
:10008000196600F012F800219960164914480160C1
:100090000121996001BC002800D000471248134993
:1000A000086003C880F30888084703B5996A0420EC
:1000B0000142FBD001200142F8D103BD02B5186610
:1000C0001866FFF7F2FF186E186E02BD00000240BE
:1000D000000000180000070000035F00212200005C
:1000E000F4000018222000A00001001008ED00E03C
:1000F00000000000000000000000000074B24E7A12
:1001000000200420F7010010C3010010C5010010F9
:10011000C1010010C1010010C1010010C101001097
:10012000C1010010C1010010C1010010C701001081
:10013000C1010010C1010010C9010010CB01001065
:10014000CD010010CD010010CD010010CD01001037
:10015000CD010010CD010010CD010010CD01001027
:10016000CD010010CD010010CD010010CD01001017
:10017000CD010010CD010010CD010010CD01001007
:10018000CD010010CD010010CD010010CD010010F7
:10019000CD010010CD010010CD010010CD010010E7
:1001A000CD010010CD010010CD010010CD010010D7
:1001B000CD010010CD010010CD010010CD010010C7
:1001C00000BE00BE00BE00BE00BE00BEEFF3058054
:1001D000103800BEF2EB8871AC7B0010D47B0010AD
:1001E0003402001090A31AE700201F49086006C8D7
:1001F00081F3088810471D48006800282FD10DA4FE
:100200000ECC002902D000F012F8F9E71849194A7B
:10021000002000E001C19142FCD1174988471749ED
:1002200088471749884700BEFDE701C901C29A42C5
:10023000FBD37047D47B0010C00000207802002060
:100240008C7D001000000420000004208C7D001034
:10025000001004200010042000000000704709482E
:1002600005F07AFC0047000008ED00E0000000D037
:1002700088020020AC060020414400100503001055
:10028000354500105756000006005250ABB360537E
:10029000E87A001006005250861C0302F87A00101B
:1002A000060052505422A29D007B001005005250BF
:1002B000DE65F4688C7D0010F8B5C04610B5064CBC
:1002C0002378002B07D1054B002B02D0044800E017
:1002D00000BF0123237010BD88050020000000002E
:1002E00008730010044B10B5002B03D003490448D9
:1002F00000E000BF10BDC046000000008C050020DB
:1003000008730010F0B5C64600B5254B254C264DA8
:100310002360264B82B02B6002F09EFC244B254FBD
:100320009846254E2968206802F06AFC002805D00E
:100330002368002B2ED02B68002B2BD0002002F03E
:100340008DF8236818882B68421D0021595E0538F6
:100350000B0012B200B2009602F028F923680020C8
:10036000185E2B680200198800964B1D05391BB2D8
:1003700009B202F01BF92B68226841461B881288DB
:10038000380005F0AFFB0A200A2102F0BBFA380062
:1003900002F04CFA9620400003F0DAF9C2E7C046BA
:1003A000A40600206C06002070060020A60600208F
:1003B00008730010BC050020E0FF00000122034B81
:1003C0001A630022024B1A707047C046000020508A
:1003D00098010020F0B5C646F02200B5404B84B02D
:1003E0001A80404B503212201A80D02402F0A8FC10
:1003F00080232406DB0263621420636102F0A0FC08
:1004000080235B036362102002F09AFC8023364E47
:100410005B02636235493068984606F0D7FD344B7D
:10042000C2011860431D1B031343324A3468134052
:100430000193314B75680393304B07000293434699
:100440000093A0232900200000221B0306F022FEB7
:10045000A0231B031A002900200006F06DFE284B84
:100460001320E3185A1E934106339846190002F0F0
:1004700011FC4146112002F00DFC0021112002F078
:1004800039FC6B463A002900200006F0A7FE6B00FD
:100490005B19DB001B4AE318D8331A601A4A07209D
:1004A0001A6001221300AB4021680B4323603368BC
:1004B00016491A6380222D339201FF3313438022A1
:1004C00052001A6002F0CEFC0121072002F0B0FCBD
:1004D000FA20400003F03CF904B080BCB846F0BDFF
:1004E00096060020940600209C0100202878001029
:1004F00058060020FFFFFF9F134410200000061045
:100500000000E0AF26E0000046E00000BD03001060
:10051000012270B5104D060A6B6829681C1D103346
:100520009A40A4000C194B681A42FCD1267012CDD7
:100530002300012210339A40084D2B78002BFCD168
:1005400004340133A4002B70C0B20C194B68134261
:10055000FCD1207070BDC0469C0100209801002095
:10056000F0B5D02315008022C6461B06520200B506
:100570009A618022D2029A610122814E0F00736833
:1005800031681C1D10339A40A4000C194B681A42A4
:10059000FCD12A232370C046C046C046C046C04690
:1005A000C046C046C046C046C046C046C046C0461B
:1005B000C046C046C046C046C046C046C046C0460B
:1005C000C046C046C046C046C046C046C046C046FB
:1005D000C046C046C046C046C046C046C046C046EB
:1005E000C046C046C046C046C046C046C046C046DB
:1005F000C046C046C046C046C046C046C046C046CB
:10060000C046C046C046C046C046C046C046C046BA
:10061000C046C046C0465B4C2378002BFCD101335A
:1006200023708022D02380211B06D20249025A6106
:1006300059619A6183B218009846FFF769FFC04676
:10064000C046C046C046C046C046C046C046C0467A
:10065000C046C046C046C046C046C046C046C0466A
:10066000C046C046C046C046C046C046C046C0465A
:10067000C046C046C046C046C046C046C046C0464A
:10068000C046C046C046C046C046C046C046C0463A
:10069000C046C046C046C046C046C046C046C0462A
:1006A000C046C046C046C046C046C046C046C0461A
:1006B000C046C046C046C046C046C046C046C0460A
:1006C000C046C046C046C046C046C046C046C046FA
:1006D000C046C046C046C046C046C046C046C046EA
:1006E000C046C046C046C046C046C046C046C046DA
:1006F000C046C046C046C046C046C046C046C046CA
:10070000C046C046C046C046C046C046C046C046B9
:10071000C046C046C046C046C046C046C046C046A9
:10072000C046C046C046C046C046C046C046C04699
:10073000C046C046C046C046C046C046C046C04689
:10074000C046C046C046C046C046C046C046C04679
:10075000C046C046C046C046C046C046C046C04669
:10076000C046C046C046C046C046C046C046C04659
:10077000C046C046C046C046C046C046C04603E06C
:100780009C010020980100202378002BFCD101332C
:1007900023704046D02380221B06D20201305A61CA
:1007A00080B29A61FFF7B4FEC046C046C046C0465C
:1007B000C046C046C046C046C046C046C046C04609
:1007C000C046C046C046C046C046C046C046C046F9
:1007D000C046C046C046C046C046C046C046C046E9
:1007E000C046C046C046C046C046C046C046C046D9
:1007F000C046C046C046C046C046C046C046C046C9
:10080000C046C046C046C046C046C046C046C046B8
:10081000C046C046C046C046C046C046C046C046A8
:10082000C046C046C046C046C046C046C046C04698
:10083000C046C046C046C046C046C046C046C04688
:10084000C046C046C046C046C046C046C046C04678
:10085000C046C046C046C046C046C046C046C04668
:10086000C046C046C046C046C046C046C046C04658
:10087000C046C046C046C046C046C046C046C04648
:10088000C046C046C046C046C046C046C046C04638
:10089000C046C046C046C046C046C046C046C04628
:1008A000C046C046C046C046C046C046C046C04618
:1008B000C046C046C046C046C046C046C046C04608
:1008C000C046C046C046C046C046C046C046C046F8
:1008D000C046C046C046C046C046C046C046C046E8
:1008E000C046C046C046C0462378002BFCD1D0236A
:1008F0008022802101201B06D202490220705A6109
:10090000996171689A610B1D9B009C46103188406B
:100910003268944453681842FCD12B23624613700A
:10092000C046C046C046C046C046C046C046C04697
:10093000C046C046C046C046C046C046C046C04687
:10094000C046C046C046C046C046C046C046C04677
:10095000C046C046C046C046C046C046C046C04667
:10096000C046C046C046C046C046C046C046C04657
:10097000C046C046C046C046C046C046C046C04647
:10098000C046C046C046C046C046C046C046C04637
:10099000C046C046C046C046C046C046C046C04627
:1009A000C046C046C046C046C046C046C046C04617
:1009B000C046C046C046C046C046C046C046C04607
:1009C000C046C046C046C046C046C046C046C046F7
:1009D000C046C046C046C046C046C046C046C046E7
:1009E0002378002BFCD1013323708022D023802177
:1009F0001B06D2024902BFB25A61380059619A619E
:100A0000FFF786FDC046C046C046C046C046C04649
:100A1000C046C046C046C046C046C046C046C046A6
:100A2000C046C046C046C046C046C046C046C04696
:100A3000C046C046C046C046C046C046C046C04686
:100A4000C046C046C046C046C046C046C046C04676
:100A5000C046C046C046C046C046C046C046C04666
:100A6000C046C046C046C046C046C046C046C04656
:100A7000C046C046C046C046C046C046C046C04646
:100A8000C046C046C046C046C046C046C046C04636
:100A9000C046C046C046C046C046C046C046C04626
:100AA000C046C046C046C046C046C046C046C04616
:100AB000C046C046C046C046C046C046C046C04606
:100AC000C046C046C046C046C046C046C046C046F6
:100AD000C046C046C046C046C046C046C046C046E6
:100AE000C046C046C046C046C046C046C046C046D6
:100AF000C046C046C046C046C046C046C046C046C6
:100B0000C046C046C046C046C046C046C046C046B5
:100B1000C046C046C046C046C046C046C046C046A5
:100B2000C046C046C046C046C046C046C046C04695
:100B3000C046C046C046C046C046C046C046C04685
:100B4000C046C0462378002BFCD10133237080229D
:100B5000D023D2021B0601375A61B8B29A61FFF75F
:100B6000D7FCC046C046C046C046C046C046C04688
:100B7000C046C046C046C046C046C046C046C04645
:100B8000C046C046C046C046C046C046C046C04635
:100B9000C046C046C046C046C046C046C046C04625
:100BA000C046C046C046C046C046C046C046C04615
:100BB000C046C046C046C046C046C046C046C04605
:100BC000C046C046C046C046C046C046C046C046F5
:100BD000C046C046C046C046C046C046C046C046E5
:100BE000C046C046C046C046C046C046C046C046D5
:100BF000C046C046C046C046C046C046C046C046C5
:100C0000C046C046C046C046C046C046C046C046B4
:100C1000C046C046C046C046C046C046C046C046A4
:100C2000C046C046C046C046C046C046C046C04694
:100C3000C046C046C046C046C046C046C046C04684
:100C4000C046C046C046C046C046C046C046C04674
:100C5000C046C046C046C046C046C046C046C04664
:100C6000C046C046C046C046C046C046C046C04654
:100C7000C046C046C046C046C046C046C046C04644
:100C8000C046C046C046C046C046C046C046C04634
:100C9000C046C046C046C046C046C046C046C04624
:100CA000C0462378002BFCD1D02380228020012154
:100CB0001B06D202400221705A6198619A6144CEAB
:100CC000301D1036B1408000101853680B42FCD123
:100CD0002C230370C046C046C046C046C046C0462E
:100CE000C046C046C046C046C046C046C046C046D4
:100CF000C046C046C046C046C046C046C046C046C4
:100D0000C046C046C046C046C046C046C046C046B3
:100D1000C046C046C046C046C046C046C046C046A3
:100D2000C046C046C046C046C046C046C046C04693
:100D3000C046C046C046C046C046C046C046C04683
:100D4000C046C046C046C046C046C046C046C04673
:100D5000C046C046C046C046C046C046C046C04663
:100D6000C046C046C046C046C046C046C046C04653
:100D7000C046C046C046C046C046C046C046C04643
:100D8000C046C046C046C046C046C046C046C04633
:100D9000C046C0462378002BFCD10133237080224B
:100DA000D02380211B06D20249025A6128005961D2
:100DB0009A61FFF7ADFBC046C046C046C046C0467C
:100DC000C046C046C046C046C046C046C046C046F3
:100DD000C046C046C046C046C046C046C046C046E3
:100DE000C046C046C046C046C046C046C046C046D3
:100DF000C046C046C046C046C046C046C046C046C3
:100E0000C046C046C046C046C046C046C046C046B2
:100E1000C046C046C046C046C046C046C046C046A2
:100E2000C046C046C046C046C046C046C046C04692
:100E3000C046C046C046C046C046C046C046C04682
:100E4000C046C046C046C046C046C046C046C04672
:100E5000C046C046C046C046C046C046C046C04662
:100E6000C046C046C046C046C046C046C046C04652
:100E7000C046C046C046C046C046C046C046C04642
:100E8000C046C046C046C046C046C046C046C04632
:100E9000C046C046C046C046C046C046C046C04622
:100EA000C046C046C046C046C046C046C046C04612
:100EB000C046C046C046C046C046C046C046C04602
:100EC000C046C046C046C046C046C046C046C046F2
:100ED000C046C046C046C046C046C046C046C046E2
:100EE000C046C046C046C046C046C046C046C046D2
:100EF000C046C046C0462378002BFCD10133237086
:100F00008022D023D2021B065A6180BCB846F0BDB5
:100F1000F0B5FA20C646D0248025802780262406F6
:100F20006D0300B540007F02F60202F011FCA561DE
:100F30000520A7616661656102F00AFC1420A561C5
:100F400002F006FC9620656102F002FC0122DE4DF3
:100F5000A7616B682968181D10339A408000A6614C
:100F600008184B681A42FCD1EF230370686801220D
:100F7000030010339A402968D44C2378002BFCD10D
:100F8000013323708026D023802704301B06F6020D
:100F90007F0280005E6108185F619E614B681A42A3
:100FA000FCD10323037068680122030010339A40C8
:100FB00029682378002BFCD1013323708026D023AD
:100FC000802704301B06F6027F0280005E6108184D
:100FD0005F619E614B681A42FCD180230370686890
:100FE0000122030010339A4029682378002BFCD19A
:100FF000013323708026D023802704301B06F6029D
:101000007F0280005E6108185F619E614B681A4232
:10101000FCD10223037068680122030010339A4058
:1010200029682378002BFCD1013323708026D0233C
:10103000802704301B06F6027F0280005E610818DC
:101040009F619E614B681A42FCD1CF230370686890
:101050000122030010339A4029682378002BFCD129
:10106000013323708026D02380271B06F6027F02DF
:1010700004305E615F619E6186008E1910004B68CE
:1010800018401A42FAD13070686801220300103308
:101090009A4029682378002BFCD1013323708026E5
:1010A000D023802704301B06F6027F0280005E6199
:1010B00008185F619E614B681A42FCD1C12303701E
:1010C00068680122030010339A4029682378002BB6
:1010D000FCD1013323708026D023802704301B06E7
:1010E000F6027F0280005E6108185F619E614B68B6
:1010F0001A42FCD1302303706868012203001033C8
:101100009A4029682378002BFCD101332370802674
:10111000D023802704301B06F6027F0280005E6128
:1011200008189F619E614B681A42FCD1ED23037041
:1011300068680122030010339A4029682378002B45
:10114000FCD1013323708026D023802704301B0676
:10115000F6027F0280005E6108185F619E614B6845
:101160001A42FCD164230370686801220300103323
:101170009A4029682378002BFCD101332370802604
:10118000D023802704301B06F6027F0280005E61B8
:1011900008185F619E614B681A42FCD103230370FB
:1011A00068680122030010339A4029682378002BD5
:1011B000FCD1013323708026D023802704301B0606
:1011C000F6027F0280005E6108185F619E614B68D5
:1011D0001A42FCD112230370686801220300103305
:1011E0009A4029682378002BFCD101332370802694
:1011F000D023802704301B06F6027F0280005E6148
:1012000008185F619E614B681A42FCD1812303700C
:1012100068680122030010339A4029682378002B64
:10122000FCD1013323708026D023802704301B0695
:10123000F6027F0280005E6108189F619E614B6824
:101240001A42FCD1E82303706868012203001033BE
:101250009A4029682378002BFCD101332370802623
:10126000D023802704301B06F6027F0280005E61D7
:1012700008185F619E614B681A42FCD18523037098
:1012800068680122030010339A4029682378002BF4
:10129000FCD1013323708026D02380271B06F60261
:1012A0007F0204305E615F619E6186008E191000CE
:1012B0004B6818401A42FAD1307068680122030066
:1012C00010339A40296803E09C0100209801002017
:1012D0002378002BFCD1013323708026D023802774
:1012E00004301B06F6027F0280005E6108185F6111
:1012F0009E614B681A42FCD1782303706868012212
:10130000030010339A4029682378002BFCD1013365
:1013100023708026D023802704301B06F6027F022C
:1013200080005E6108189F619E614B681A42FCD183
:10133000CB23037068680122030010339A402968A8
:101340002378002BFCD1013323708026D023802703
:1013500004301B06F6027F0280005E6108185F61A0
:101360009E614B681A42FCD13923037068680122E0
:10137000030010339A4029682378002BFCD10133F5
:1013800023708026D023802704301B06F6027F02BC
:1013900080005E6108185F619E614B681A42FCD153
:1013A0002C23037068680122030010339A402968D7
:1013B0002378002BFCD1013323708026D023802793
:1013C0001B06F6027F0204305E615F619E6186004B
:1013D0008E1910004B6818401A42FAD130706868B4
:1013E0000122030010339A4029682378002BFCD196
:1013F000013323708026D023802704301B06F60299
:101400007F0280005E6108185F619E614B681A422E
:10141000FCD13423037068680122030010339A4022
:1014200029682378002BFCD1013323708026D02338
:10143000802704301B06F6027F0280005E610818D8
:101440005F619E614B681A42FCD102230370686899
:101450000122030010339A4029682378002BFCD125
:10146000013323708026D023802704301B06F60228
:101470007F0280005E6108189F619E614B681A427E
:10148000FCD1F723037068680122030010339A40EF
:1014900029682378002BFCD1013323708026D023C8
:1014A000802704301B06F6027F0280005E61081868
:1014B0005F619E614B681A42FCD12023037068680B
:1014C0000122030010339A4029682378002BFCD1B5
:1014D000013323708026D023802704301B06F602B8
:1014E0007F0280005E6108189F619E614B681A420E
:1014F000FCD1EA23037068680122030010339A408C
:1015000029682378002BFCD1013323708026D02357
:1015100080271B06F6027F0204305E615F619E61D8
:1015200086008E1910004B6818401A42FAD13070AC
:1015300068680122030010339A4029682378002B41
:10154000FCD1013323708026D02380271B06F602AE
:101550007F0204305E615F619E6186008E1910001B
:101560004B6818401A42FAD13070686801220300B3
:1015700010339A4029682378002BFCD10133237063
:101580008026D023802704301B06F6027F028000CD
:101590005E6108189F619E614B681A42FCD1C023AE
:1015A000037068680122030010339A402968237889
:1015B000002BFCD1013323708026D02380270430F8
:1015C0001B06F6027F0280005E6108185F619E6163
:1015D0004B681A42FCD12323037068680122030080
:1015E00010339A4029682378002BFCD101332370F3
:1015F0008026D023802704301B06F6027F0280005D
:101600005E6108189F619E614B681A42FCD1C1233C
:10161000037068680122030010339A402968237818
:10162000002BFCD1013323708026D0238027043087
:101630001B06F6027F0280005E6108185F619E61F2
:101640004B681A42FCD11023037068680122030022
:1016500010339A4029682378002BFCD10133237082
:101660008026D023802704301B06F6027F028000EC
:101670005E6108189F619E614B681A42FCD1C523C8
:10168000037068680122030010339A4029682378A8
:10169000002BFCD1013323708026D0238027043017
:1016A0001B06F6027F0280005E6108185F619E6182
:1016B0004B681A42FCD13E23037068680122030084
:1016C00010339A4029682378002BFCD10133237012
:1016D0008026D023802704301B06F6027F0280007C
:1016E0005E6108185F619E614B681A42FCD1282335
:1016F000037068680122030010339A402968237838
:10170000002BFCD1013323708026D02380270430A6
:101710001B06F6027F0280005E6108189F619E61D1
:101720004B681A42FCD1C72303706868012203008A
:1017300010339A4029682378002BFCD101332370A1
:101740008026D023802704301B06F6027F0280000B
:101750005E6108185F619E614B681A42FCD1862366
:10176000037068680122030010339A4029682378C7
:10177000002BFCD1013323708026D0238027043036
:101780001B06F6027F0280005E6108189F619E6161
:101790004B681A42FCD136230370686801220300AB
:1017A00010339A4029682378002BFCD10133237031
:1017B0008026D023802704301B06F6027F0280009B
:1017C0005E6108185F619E614B681A42FCD1482334
:1017D000037068680122030010339A402968237857
:1017E000002BFCD1013323708026D02380270430C6
:1017F0001B06F6027F0280005E6108189F619E61F1
:101800004B681A42FCD13A23037068680122030036
:1018100010339A4029682378002BFCD101332370C0
:101820008026D023802704301B06F6027F0280002A
:101830005E6108185F619E614B681A42FCD15523B6
:10184000037068680122030010339A4029682378E6
:10185000002BFCD1013323708026D0238027043055
:101860001B06F6027F0280005E6108189F619E6180
:101870004B681A42FCD1B12303706868012203004F
:1018800010339A4029682378002BFCD10133237050
:101890008026D02380271B06F6027F0204305E617B
:1018A0005F619E6186008E1910004B6818401A42D5
:1018B000FAD1307068680122030010339A40296819
:1018C0002378002BFCD1013323708026D02380277E
:1018D00004301B06F6027F0280005E6108185F611B
:1018E0009E614B681A42FCD118230370686801227C
:1018F000030010339A4029682378002BFCD1013370
:1019000023708026D023802704301B06F6027F0236
:1019100080005E6108189F619E614B681A42FCD18D
:10192000B623037068680122030010339A402968C7
:101930002378002BFCD1013323708026D02380270D
:1019400004301B06F6027F0280005E6108185F61AA
:101950009E614B681A42FCD108230370686801221B
:10196000030010339A4029682378002BFCD10133FF
:1019700023708026D023802704301B06F6027F02C6
:1019800080005E6108185F619E614B681A42FCD15D
:101990008223037068680122030010339A4029688B
:1019A0002378002BFCD1013323708026D02380279D
:1019B00004301B06F6027F0280005E6108185F613A
:1019C0009E614B681A42FCD127230370686801228C
:1019D000030010339A4029682378002BFCD101338F
:1019E00023708026D023802704301B06F6027F0256
:1019F00080005E6108189F619E614B681A42FCD1AD
:101A0000F223037068680122030010339A402968AA
:101A10002378002BFCD1013323708026D02380272C
:101A20001B06F6027F0204305E615F619E618600E4
:101A30008E1910004B6818401A42FAD1307068684D
:101A40000122030010339A4029682378002BFCD12F
:101A5000013323708026D023802704301B06F60232
:101A60007F0280005E6108189F619E614B681A4288
:101A7000FCD12623037068680122030010339A40CA
:101A800029682378002BFCD1013323708026D023D2
:101A9000802704301B06F6027F0280005E61081872
:101AA0005F619E614B681A42FCD101220270686836
:101AB0002968030010339A402378002BFCD10133AE
:101AC00023708026D023802704301B06F6027F0275
:101AD00080005E6108189F619E614B681A42FCD1CC
:101AE000E023037068680122030010339A402968DC
:101AF0002378002BFCD1013323708026D02380274C
:101B000004301B06F6027F0280005E6108185F61E8
:101B10009E614B681A42FCD10F2303706868012252
:101B2000030010339A4029682378002BFCD101333D
:101B300023708026D023802704301B06F6027F0204
:101B400080005E6108185F619E614B681A42FCD19B
:101B50003123037068680122030010339A4029681A
:101B60002378002BFCD1013323708026D0238027DB
:101B700004301B06F6027F0280005E6108185F6178
:101B80009E614B681A42FCD12B23037068680122C6
:101B9000030010339A4029682378002BFCD10133CD
:101BA00023708026D023802704301B06F6027F0294
:101BB00080005E6108185F619E614B681A42FCD12B
:101BC0000C23037068680122030010339A402968CF
:101BD0002378002BFCD1013323708026D02380276B
:101BE00004301B06F6027F0280005E6108185F6108
:101BF0009E614B681A42FCD10E2303706868012273
:101C0000030010339A4029682378002BFCD101335C
:101C100023708026D023802704301B06F6027F0223
:101C200080005E6108185F619E614B681A42FCD1BA
:101C30000823037068680122030010339A40296862
:101C40002378002BFCD1013323708026D0238027FA
:101C500004301B06F6027F0280005E6108185F6197
:101C60009E614B681A42FCD14E23037068680122C2
:101C7000030010339A4029682378002BFCD10133EC
:101C800023708026D023802704301B06F6027F02B3
:101C900080005E6108185F619E614B681A42FCD14A
:101CA000F123037068680122030010339A40296809
:101CB0002378002BFCD1013323708026D02380278A
:101CC00004301B06F6027F0280005E6108185F6127
:101CD0009E614B681A42FCD1372303706868012269
:101CE000030010339A4029682378002BFCD101337C
:101CF00023708026D023802704301B06F6027F0243
:101D000080005E6108185F619E614B681A42FCD1D9
:101D10000723037068680122030010339A40296882
:101D20002378002BFCD1013323708026D023802719
:101D300004301B06F6027F0280005E6108185F61B6
:101D40009E614B681A42FCD110230370686801221F
:101D5000030010339A4029682378002BFCD101330B
:101D600023708026D023802704301B06F6027F02D2
:101D700080005E6108185F619E614B681A42FCD169
:101D80000323037068680122030010339A40296816
:101D90002378002BFCD1013323708026D0238027A9
:101DA00004301B06F6027F0280005E6108185F6146
:101DB0009E614B681A42FCD10E23037068680122B1
:101DC000030010339A4029682378002BFCD101339B
:101DD00023708026D023802704301B06F6027F0262
:101DE00080005E6108185F619E614B681A42FCD1F9
:101DF0000923037068680122030010339A402968A0
:101E00002378002BFCD1013323708026D023802738
:101E10001B06F6027F0204305E615F619E618600F0
:101E20008E1910004B6818401A42FAD13070686859
:101E30000122030010339A4029682378002BFCD13B
:101E4000013323708026D023802704301B06F6023E
:101E50007F0280005E6108189F619E614B681A4294
:101E6000FCD1E123037068680122030010339A401B
:101E700029682378002BFCD1013323708026D023DE
:101E800080271B06F6027F0204305E615F619E615F
:101E900086008E1910004B6818401A42FAD1307033
:101EA00068680122030010339A4029682378002BC8
:101EB000FCD1013323708026D023802704301B06F9
:101EC000F6027F0280005E6108185F619E614B68C8
:101ED0001A42FCD10E2303706868012203001033FC
:101EE0009A4029682378002BFCD101332370802687
:101EF000D023802704301B06F6027F0280005E613B
:101F000008185F619E614B681A42FCD1142303706C
:101F100068680122030010339A4029682378002B57
:101F2000FCD1013323708026D023802704301B0688
:101F3000F6027F0280005E6108185F619E614B6857
:101F40001A42FCD103230370686801220300103396
:101F50009A4029682378002BFCD101332370802616
:101F6000D023802704301B06F6027F0280005E61CA
:101F700008185F619E614B681A42FCD111230370FF
:101F800068680122030010339A4029682378002BE7
:101F9000FCD1013323708026D023802704301B0618
:101FA000F6027F0280005E6108185F619E614B68E7
:101FB0001A42FCD107230370686801220300103322
:101FC0009A4029682378002BFCD1013323708026A6
:101FD000D023802704301B06F6027F0280005E615A
:101FE00008185F619E614B681A42FCD1312303706F
:101FF00068680122030010339A4029682378002B77
:10200000FCD1013323708026D023802704301B06A7
:10201000F6027F0280005E6108185F619E614B6876
:102020001A42FCD1C12303706868012203001033F7
:102030009A4029682378002BFCD101332370802635
:10204000D023802704301B06F6027F0280005E61E9
:1020500008185F619E614B681A42FCD148230370E7
:1020600068680122030010339A4029682378002B06
:10207000FCD1013323708026D023802704301B0637
:10208000F6027F0280005E6108185F619E614B6806
:102090001A42FCD108230370686801220300103340
:1020A0009A4029682378002BFCD1013323708026C5
:1020B000D023802704301B06F6027F0280005E6179
:1020C00008185F619E614B681A42FCD10F230370B0
:1020D00068680122030010339A4029682378002B96
:1020E000FCD1013323708026D023802704301B06C7
:1020F000F6027F0280005E6108185F619E614B6896
:102100001A42FCD10C2303706868012203001033CB
:102110009A4029682378002BFCD101332370802654
:10212000D023802704301B06F6027F0280005E6108
:1021300008185F619E614B681A42FCD1312303701D
:1021400068680122030010339A4029682378002B25
:10215000FCD1013323708026D023802704301B0656
:10216000F6027F0280005E6108185F619E614B6825
:102170001A42FCD136230370686801220300103331
:102180009A4029682378002BFCD1013323708026E4
:10219000D023802704301B06F6027F0280005E6198
:1021A00008185F619E614B681A42FCD10F230370CF
:1021B00068680122030010339A4029682378002BB5
:1021C000FCD1013323708026D023802704301B06E6
:1021D000F6027F0280005E6108189F619E614B6875
:1021E0001A42FCD1112303702378002BFCD1D02795
:1021F00080230126DB023F06267078207B6198460B
:1022000001F0A6FA06CD80235B02BB61101D434698
:10221000103296408000BB6108184B681E42FCD10A
:10222000292303702378002BFCD1013323708022F3
:10223000D023FA201B06D2025A61400001F088FA2E
:1022400080BCB846F0BDC046F0B515001F00802226
:10225000D023C6461B06520200B59A6180224B4E1F
:10226000D2029A6173688846191D10331C0001233D
:10227000A34032688900511854682342FCD12A23B4
:10228000434C0B702378002BFCD101332370802248
:10229000D02380211B06D20249025A6159619A61FA
:1022A000FEF736F92378002BFCD10133237080220E
:1022B000D02380211B06D20249025A6128005961AD
:1022C0009A61FEF725F92378002BFCD1D0238022D8
:1022D000802101251B06D202490225705A619961AD
:1022E00071689A61081D10318D403368800018189C
:1022F0005A681542FCD12B2303702378002BFCD1A4
:10230000013323708022D02380211B06D202490290
:102310005A61404659619A61FEF7FAF82378002B1A
:10232000FCD1013323708022D02380211B06D202EE
:1023300049025A61380059619A61FEF7E9F8237839
:10234000002BFCD1D0238021802001221B06C90252
:102350004002227059619861996122CE281D103582
:10236000AA40800008184B681342FCD12C2303704C
:102370002378002BFCD1013323708022D023D2029A
:102380001B065A6180BCB846F0BDC0469C010020C7
:1023900098010020F8B5CE46474680B5984608AB70
:1023A0001E882B4B91461B88984242DA294A148892
:1023B000A1423EDA4A46121880B2934242DB4B46B3
:1023C0009AB243465B1889B29C4236DB43469BB2C5
:1023D000CB188218013B013A9BB292B2FFF734FF4F
:1023E000D02380221B0652025A618022D2029A61B7
:1023F0004346002B18DD4B46002B15DD0127164CFC
:102400004D463000FEF784F821780029FCD1013DCB
:10241000ABB227702DB2002BF3D14346013B9AB2E9
:102420001BB29846002AEBD1D02380221B06D20291
:102430005A61C0BCB946B046F8BD641AA3B224B212
:10244000A046C5E71B1A9AB21BB29946B9E7C04627
:1024500096060020940600209801002000B5074B46
:1024600083B000229B5E064A0021525E009000214C
:102470000020FFF78FFF03B000BDC0469406002088
:1024800096060020D02380221B065202F0B59A61E6
:102490008022D2029A610122060040484368016806
:1024A0001C1D10339A40A4000C194B681A42FCD131
:1024B0003623237022C82B00012210339A40384B58
:1024C0001C78002CFCD10120D02480271870240611
:1024D000FF0202306761304002284ED003283CD012
:1024E00001281CD0802004354002AD0060614D19E8
:1024F000A76148681042FCD148222A701A78002A45
:10250000FCD101321A70D02380221B06D2025A61FC
:10251000F022244B1A80244B50321A80F0BD8020C8
:1025200004354002AD0060614D19A7614868104252
:10253000FCD128222A701A78002AFCD101321A70A4
:10254000D02380221B06D2025A61A022154B5200D2
:102550001A80154B503A1A80E0E78020043540027B
:10256000AD0060614D19A76148681042FCD1E822B6
:102570002A701A78002AFCD1E0E780200435400256
:10258000AD0060614D19A76148681042FCD18822F6
:102590002A701A78002AFCD1B3E7C0469C010020BB
:1025A000980100209606002094060020F0B55746BA
:1025B0004E464546DE460400E0B5170083B00E00E7
:1025C0008A46591AC8170CAA128809184140381BA4
:1025D0000192C21780181D00B946A4468846504093
:1025E000814206DD3D00A2461F00340080464B4676
:1025F0006646BC420BDD5246521BD51752196A4043
:10260000904632001E00130022003C0017003A1BC7
:1026100095B212B2AA46D50FAD1801226D1091469F
:10262000B34201DC274B994643469BB29846264B62
:102630009B463B0047469846814236DC002C0EDB29
:102640005B461B88A3420ADD002E08DB1F4B1B885C
:10265000B34204DD31002000019AFDF781FFEB1B3E
:102660009AB21DB21B0403D54E44524436B215B281
:10267000013424B24445E1DD03B0F0BCBB46B246B0
:10268000A946A046F0BD21003000019AFDF768FF81
:10269000EB1B9AB21DB21B0403D54E44524436B212
:1026A00015B2013424B24445E6DC002EF0DB5B4673
:1026B0001B889E42ECDA002CEADB044B1B889C4210
:1026C000E1DBE5E7FFFF000096060020940600200E
:1026D000F0B54546DE4657464E46E0B58DB004930C
:1026E00016AB1B88059317AB1B7898464C4B1B8881
:1026F000984267DA4B4B1B88994263DA43465B008A
:1027000043445B001B18002B5CDD4346DB005B1879
:10271000002B57DD43469BB29A4693009A18424BD2
:1027200080B2D3180A93002308938BB20B9308331B
:102730009BB2099007900393089B052B00D16CE096
:102740000A9B1E786B461C229B5E0B9D9B466B462C
:1027500024229B5E2C0006930123994643461FB218
:1027600012E04346012B34D0049B29B200933A0077
:102770003B005846FFF70EFE0134039B5544A4B2BC
:102780007608ADB2A3420CD04B463342E9D1059B4B
:10279000049A9342F0D04346012B2CD0059B29B2DA
:1027A000E4E7089B0133DAB2099B089201339BB23C
:1027B0000993079B53449BB207930A9B01330A93E7
:1027C000062AB9D10DB0F0BCBB46B246A946A04618
:1027D000F0BD06980028CFDB114B1B889842CBDA5E
:1027E00021B20029C8DB0F4B1B889942C4DA049A36
:1027F000FDF7B6FEC0E706980028BDDB084B1B8836
:102800009842B9DA21B20029B6DB064B1B889942FF
:10281000B2DA059AFDF7A4FEAEE7002692E7C046BD
:1028200096060020940600202C730010F0B5CE46CA
:10283000474680B50278040083B0002A23D02A4B93
:102840002A4E99462A4D0EE00D2A09D0092A1FD199
:10285000274A28491388098804338B4200DA1380F9
:102860002278002A0FD001340A2AEDD1224B1F4AC8
:102870001B881188DB005B18138000221C4B1A8018
:102880002278002AEFD103B0C0BCB946B046F0BDF3
:102890004B460020315E0027E85F174F1B88B84683
:1028A0003F780197154F3F880097FFF711FF434688
:1028B0001A8829885300D3185B005B1810499BB213
:1028C00009882B800029CBD00A4908889100511A29
:1028D000490041188B42C3DD3388D200D21800234F
:1028E00032802B80BCE7C0469E0600209A0600205E
:1028F0009806002096060020A00600209C060020D6
:10290000A2060020024B1880024B19807047C04677
:10291000980600209A060020031C002800D10123FD
:10292000014ADBB213807047A0060020024B1880DA
:10293000024B19807047C0469E0600209C0600206E
:10294000F0B5D6464F464646C0B5814684B0152000
:1029500000F0F6F9D024802324069B03A3621F21F4
:102960001B2000F097F9002200211B2000F0AAF99B
:1029700000211B2000F0D0F98023984D5B012A68CC
:1029800016205340E022D2011340954A04AF136051
:1029900000F0D6F98023DB0363621A20636100F044
:1029A000CFF98023DB046362A3618E4B01AC8022EC
:1029B000260021009C4604205200634618602B68C4
:1029C0001342FCD06B681B041B0C08C1B942F4D144
:1029D000029A019B934200DCFBE0029323001A6001
:1029E000039D022202A900E001227F4BD3189B0025
:1029F000E058854200DBE6E0C850012AF4D122000D
:102A000015606268794B16209B1A984600F098F979
:102A1000D0231B069A4680235246DB0393621F2174
:102A20001A2000F037F9002200211A2000F04AF99C
:102A300000211A2000F070F9E022684DD2012B68C5
:102A40001B201340664A136000F07AF98023524637
:102A50001B0553621520536100F072F98023524622
:102A60009B0353629361802204215E4852000160FF
:102A70002B681342FCD06B681B041B0C08C6BE42BB
:102A8000F5D1029A019B934200DCA4E0029323005B
:102A90001A60039E022202A800E00122524BD318C2
:102AA0009B00E1588E4200DB90E0C150012AF4D136
:102AB0002200166063684D4C1620E41AD02600F000
:102AC0003FF980233606DB0373621520B36100F003
:102AD00037F980239B0373621F2173611A2000F072
:102AE000D9F8002200211A2000F0ECF800211A2069
:102AF00000F012F91F211B2000F0CCF80022002169
:102B00001B2000F0DFF800211B2000F005F9E02178
:102B1000324AC90113680B4031490B600421314B23
:102B20001960FC3113680B42FCD080235668126890
:102B30005B015340E022D2011340294A80211360F7
:102B40000422284B36041A60244A360C49001368C4
:102B50000B42FCD050680004000C03F0E1FE071C9F
:102B6000300003F0DDFE011C381C03F090FEFE2156
:102B7000890503F086FE061C404603F0D1FE311C99
:102B800003F099FE1A4903F096FEE621890503F049
:102B900092FE1849061C03F0BDFE002811D1301C1E
:102BA00003F0E0FE06B2144804F0A2F84B46424699
:102BB0005C801A809E8004B0E0BCBA46B146A8464C
:102BC000F0BD0E4EEFE79200A21819E79200A2188E
:102BD0006FE702AB03E702AB5AE7C04600C0044010
:102BE00000D0044000E00440FFFFFF3FFF0F000063
:102BF0000080894300FEFF463C780010FF7F000004
:102C000030B583B0050068460C00FFF799FE6A46B0
:102C10000E4B0421525E00209A4214DC6B460022C7
:102C20009B5E0B491801C01A000102F0C7FF6B46FA
:102C3000288002229B5E07499800C018800102F09C
:102C4000BDFF2080012003B030BDC0461F4E0000F4
:102C500004100000D80E000010B504F07FF804F056
:102C600099F9FDF7B7FBFEF753F90020FFF70AFCCF
:102C70000020FFF7F3FB0120FFF74EFE0021044880
:102C8000FFF754FE0A210A20FFF73CFE10BDC046A4
:102C90001FF80000094A830094464022634410B59F
:102CA0001C68C0006240C0241440802252011343BB
:102CB0001C60034B9C466044416010BD04C0014051
:102CC000004001400A4B80009C46042360440029D8
:102CD00001D00C230821002A00D10B0002685340C8
:102CE0000C221A4080235B01184302607047C046E3
:102CF00004C00140074BC0009C46604403680902C1
:102D00005940C0239B00194080235B011843016098
:102D10007047C04604400140084B80009C46604418
:102D2000002905D080239B0118434023036070478E
:102D3000C0239B01184340230360F8E704C001400F
:102D40000123D0228340120693629361094A8300D3
:102D50009446402263441968C0004A40C021114093
:102D60008022520113431960034B9C4605236044A3
:102D70004360704704C0014000400140024B1868A6
:102D80008007C00F7047C04600C00640EFF31080B8
:102D900072B6034A1368002BFCD0BFF35F8F7047F5
:102DA0002C0100D0BFF35F8F0022024B1A6080F32A
:102DB000108870472C0100D070B5EFF3108C72B6FC
:102DC0000D4D2B68002BFCD0BFF35F8F0724CB0881
:102DD000C618C05C01230C40A3401C000440034201
:102DE00007D103433370BFF35F8F2C608CF31088DF
:102DF00070BD100001F0A2FB2C0100D00021044B9B
:102E0000044ABFF35F8F02C39342FAD17047C046B2
:102E1000000100D0800100D0044A1078431CDBB2CE
:102E2000172B00D9102313707047C046A80100204B
:102E300001238340002904D0034A1360034A13602E
:102E40007047034A1360FBE780E200E000E100E026
:102E500080E100E0024B10309B688000C058704752
:102E600000ED00E070B50D00EFF3108672B60F4A6A
:102E70001368002BFCD0BFF35F8F0D4B10309B68A5
:102E800084001B590B4A934203D09D4201D001F0AC
:102E90006DFB074B9B681D51BFF35F8FBFF35F8FC7
:102EA0000022024B1A6086F3108870BD240100D006
:102EB00000ED00E0CD010010F0B5DE4657464E466D
:102EC0004546E0B50C0083B0EFF3108972B6584A5E
:102ED0001368002BFCD0BFF35F8F564B9A6803003A
:102EE00010339F00D559544A9046954232D0A5429E
:102EF00043D0524EAA1B2F2A2CD801228240924640
:102F000051464F4A12681140019151464D4A116095
:102F1000BFF35F8FEFF305829346002A33D101237D
:102F20002A009A4393689C4208D177E04B005B18D3
:102F30009B00F3189968A1422AD01A000621515625
:102F40000029F3DA019B002B19D052463E4B1A6040
:102F50003B4B1A60374B9B68DD51BFF35F8FBFF36C
:102F60005F8F0022324B1A6089F3108803B0F0BCE7
:102F7000BB46B246A946A046F0BD1500EAE7524658
:102F8000304B1A60E6E79342C9D001F0EFFAC6E78A
:102F900006215956002921DB4A00501880003418B8
:102FA0008046A0689860E079D87106202056987114
:102FB000002824DBA488F01A640524154444001971
:102FC000E0240005400D24022043988052181F4B36
:102FD0009200B6181A781970B271B3E759460029F1
:102FE0000FD1FF3191711A49918018490A789A716D
:102FF000184A9B1B5B415A43120D0A70A2E7164800
:10300000E3E7164A1649D21A083A5002400D014326
:103010009980144952080A43DA8093E706215156F1
:1030200013000029B8DA5A46002AEAD14546DCE7FF
:10303000240100D000ED00E0CD010010AC01002023
:1030400000E100E080E100E080E200E0A90600206D
:1030500001BDFFFFAAAA000001BD0000E60100209B
:1030600000F0FFFF00F8FFFF70B5EFF305810124CA
:103070000443EFF3108C72B6214A1368002BFCD086
:10308000BFF35F8F1F4B05001F4AED1A6D416A4366
:10309000120D1E4D8900AE6852B27658A6421CD061
:1030A0000621595691421CD012215956914222D0E4
:1030B0001E215956914220D02A215956032491426B
:1030C00010D0134B19781A708171BFF35F8F0022F3
:1030D0000B4B1A608CF3108870BDAB680D4C5C50C4
:1030E000EFE700246100091989005B18FF2199713D
:1030F00009499980E5E70124F4E70224F2E7C04694
:10310000240100D0AC010020AAAA000000ED00E0DC
:10311000A9060020CD01001001BDFFFF054B064AA6
:103120001360064A136053609360D3601361536168
:10313000936170478080808000E400E004E400E058
:10314000024B9C4661448900016070474000003496
:1031500010B50400FFF760FE01002000FFF7F0FF4C
:10316000FF232371BFF35F8F10BDC04610B504006D
:10317000FFF752FE01002000FFF7E2FFFF23A380CC
:10318000BFF35F8F10BDC04683680B4810B58446FF
:1031900061446244090112019A18591854684B6835
:1031A00001209C4201D802D00020C0B210BD12689C
:1031B0000B689A42F9D8F7E7FFFFFF0F0A4B19682F
:1031C000EFF3108072B60A68002AFCD0BFF35F8F5D
:1031D0001B68BFF35F8F00221A6080F3108840BF26
:1031E000002000217047C04678060020F8B55746F9
:1031F0004E464546DE46E0B599460CAB1C780DAB15
:103200001B78060090469A460768002C11D1BC7BBB
:10321000002C42D065003B682D19033D59194B78AD
:10322000BB73002B00D1FB7300238B704B700B70B2
:1032300004E065003B682D19033D5919B2682A4B1B
:1032400094464246E3181B0163441A604A465A609A
:103250000A9A9A600B9ADA6000238B704B700B709D
:103260007B7B9B46002B2BD022005946B8687B689D
:1032700098473A68002816D05B4658465B005B4486
:103280005519033BA870D118D35C002B00D06B708C
:103290005B460C707B73A34513D0F0BCBB46B246B3
:1032A000A946A046F8BD5B465B005B44033BD318D0
:1032B0009C705119525D002A00D05A705B460B7009
:1032C0007C7342464B46307D00F0BAFB051E06D0AB
:1032D0005346002B03D12100306800F0D5FD0E9B32
:1032E000002BDAD01D70D8E7FFFFFF0FF0B5DE46E8
:1032F00057464E4645460023E0B58BB00893674BD2
:103300008200D45800239B46099000F00FFB6268AE
:1033100006000F00EFF3108572B61368002BFCD087
:10332000BFF35F8F23689C465B7B9946002B00D1DF
:1033300069E0A2685A4B90464B441B0198444346AF
:103340001A685B6810001900801BB941002900DC75
:1033500063E0099800F074FB0023002298460023E4
:103360000692079300239A466368BFF35F8F5A461D
:103370001A6085F310885346002B08D10028C4D169
:103380000BB0F0BCBB46B246A946A046F0BD089BB8
:10339000414618024B461843D047626806000F00AA
:1033A000EFF3108572B61368002BFCD0BFF35F8F6C
:1033B000002F50DB33003B4302D02369002B61D147
:1033C0002368D97B002907D04A00521819688C4617
:1033D00049466244033A51709A7B002A01D14A4619
:1033E0009A734A46DA734B46E168013BCA5C013284
:1033F000CA545B4623616368BFF35F8F5A461A6005
:1034000085F3108881E70023002298460023069266
:103410000793002300209A46A6E7002902D100283E
:1034200000D096E70021604600F0ACFC43461A68E5
:103430005B680692079343469B689A464346DB685F
:103440009846E3684B44013B1B7808931B020343F7
:103450002361002088E72369002BB1D0069A079BDF
:10346000921BBB41002B15DB5946049101210391AE
:103470004946029141460191514620000091FFF7D3
:10348000B5FEB6E700F052FA32003B0012184B418D
:10349000002BE9DA0122034B5242E5E75C060020EB
:1034A000FFFFFF0FFFFFFF7F10B5144C6368002B79
:1034B00004D00A211248FFF743FE10BD2300114A31
:1034C0001021206800F078FB032000F023FA03208D
:1034D00000F020FB03200C4900F06CFAFFF79CFC85
:1034E0000A4B9C4603232375D0231B061B686044AC
:1034F0006375074B80006060DC60DAE7F401002050
:103500007806002089310010ED32001040000034B0
:103510005C060020F0B54E464546DE465746E0B50F
:1035200085B0019310AB1B780600039300239946E6
:10353000984600927268EFF3108B72B61368002BF6
:10354000FCD0BFF35F8F3568AC7B002C3DD06700AB
:103550002B683F19033FDB195A78AA73002A00D160
:10356000EA73B168474A8C4600980199A218120183
:103570006244106051600E9991600F99D16042468B
:103580009A705A701A706B7B9A46002B67D0220093
:103590001900A8686B6898472A68002852D05346DB
:1035A00050465B005344D719033BB870D118D35C25
:1035B000002B00D07B7053460C706B7354454FD07A
:1035C000F3681B19013B187800E000207368BFF313
:1035D0005F8F42461A608BF31088002C4FD04B4609
:1035E000002B08D10002204305B0F0BCBB46B24618
:1035F000A946A046F0BD039B002B3ED00E9B0020A9
:103600000F999847030004000D000B4335D00029A3
:103610000ADA009A019B121BAB4100920193002B26
:103620000ADB039B994685E700F080F924184D4199
:1036300000940195002DF4DA0123134C5B420093B2
:103640000194EEE753465B005344033BD3189C7050
:10365000D119D25D002A00D05A7053460B706C739A
:10366000307D009A019B00F0EBF981460028A7D03D
:103670002100306800F008FCA2E70020B4E7012038
:103680004042B1E7FFFFFF0FFFFFFF7FF0B50400EF
:103690000D0006267642F717C64636196F4100B56B
:1036A00084B08F4214D811D000F040F932003B00B2
:1036B000121A8B41002B15DC002B3ED02000290074
:1036C00000F068F904B080BCB846F0BD8642EBD982
:1036D0000026002700F02AF932003B00121A8B4125
:1036E000002BE9DD002302930193154B3200009378
:1036F00014483B00FFF70EFF0028DFDB002398464D
:10370000BC46114A114F7B6A9C4504D8B96A8E4267
:10371000D4D99C45D2D11168EFF3108072B60B68F2
:10372000002BFCD0BFF35F8F1368BFF35F8F414660
:10373000196080F3108820BFE5E7002ABED0D1E7EA
:10374000BD310010F4010020780600200040054043
:1037500070B5060000F0EAF8FA2204000D0000231C
:1037600030000021920003F06FF800196941002930
:1037700002DBFFF78BFF70BD012001494042F8E7F3
:10378000FFFFFF7FF0B5EFF30583CE46474680B5D8
:1037900005000C0085B0002B12D02C4A0020536A83
:1037A0009C4203D8926A0130AA4204D305B0C0BC3F
:1037B000B946B046F0BDE01A421E9041C0B2F5E7EE
:1037C000234E02930193234B0200009330000B0021
:1037D000FFF7A0FE031EE0DD20BF7168EFF3108746
:1037E00072B60A68002AFCD0BFF35F8FDAB2944643
:1037F0003068427B62451DD0FF221A405100894645
:103800000168914488464946414403398978002932
:1038100013D0F1681B0A88464244013A1278DBB2A1
:103820009A420FD07368BFF35F8F00221A6087F34C
:103830001088B2E7FF221A40EBE732699342F1D1D8
:103840003161EFE7614600F01FFBEBE70040054008
:10385000F4010020BD310010F0B5EFF30582D6462B
:103860004F4646461000C0B51038EFF3108872B6C8
:10387000214C2368002BFCD0BFF35F8F012319007C
:1038800081401E4D1F006963AA461D4D29601D4DD4
:103890002E78AC463500C5402F402B4209D1BFF3EE
:1038A0005F8F276088F31088E0BCBA46B146A8460F
:1038B000F0BD5346144D5F6A83005D59AF420ED38D
:1038C000124A8E439B5862461670BFF35F8F0022E8
:1038D000226088F31088002BE6D09847E4E70C4B71
:1038E00092009C46624413681360BFF35F8F00230D
:1038F000236088F31088D7E7280100D000400540F6
:103900003C700540AA0600207C060020AC05002083
:10391000D03F054010B50100024A0348FFF74CFABA
:1039200010BDC04644780010A8060020034B596A19
:103930000A00986A596A8A42FAD1704700400540E5
:1039400070B504000D00124A536A1900966A536A52
:103950008B42FAD13000190024184D41AB4211D8E6
:103960000ED02B000A494A6A9A42FCD307D1084A72
:1039700002E0516A994202D1916AA142F9D370BD25
:10398000A642EED9012301246442E5175B42E9E730
:1039900000400540064A536A9942FCD807D1044BBF
:1039A00002E05A6A914202D19A6A8242F9D3704780
:1039B0000040054070B504000D00EFF3108672B6AC
:1039C0001A4A1368002BFCD0BFF35F8F002D1BD069
:1039D0002000FFF73FFA164981420AD02000FFF786
:1039E00041FA01212000FFF723FA0123A340114AE5
:1039F0001360114BA400E550BFF35F8F00220B4B07
:103A00001A6086F3108870BD0B4BA200D5500122BE
:103A1000A2400A4920000B7893430B700449FFF73A
:103A20004BFA00212000FFF703FAE5E7280100D058
:103A30005938001038600540AC050020AA06002067
:103A4000F0B54F46D6464646C0B507002C4C616AD5
:103A50000D00A66A616AA942FAD18B4208D805D046
:103A60000120E0BCBA46B146A846F0BDB242F7D943
:103A7000EFF3108A72B6234801680029FCD0BFF327
:103A80005F8F0125BD4020491D4C88460978894635
:103A90002943C9B28C46414660460870391D1B480F
:103AA000890065630A51B9000B50216A0020294240
:103AB00019D0616A0800A66A616A8142FAD18B4214
:103AC00019D801D1B24216D8CC4516D00C4B1F20C4
:103AD0001D625D6301230740BB400D4A1E38136021
:103AE00043464A461A70BFF35F8F0022054B1A60A7
:103AF0008AF31088B5E70020F5E70120F3E7C04618
:103B000000400540280100D0AA0600207C060020C5
:103B100080E200E0EFF3108C72B60A490B68002BCC
:103B2000FCD0BFF35F8F01238340074A074813622D
:103B300002789A430270BFF35F8F00230B608CF30F
:103B400010887047280100D000400540AA060020D8
:103B500070B5050014001600002915D00C00002ACD
:103B600012D080686B689847296800280ED07300CF
:103B70009B196200033B1219CB18033A9C708818FA
:103B80008A5C002A15D10670200070BD63001B19E5
:103B90007200033B9219CB18033A9E7088188A5C16
:103BA000002A02D104703400EEE75A700470340029
:103BB000EAE75A700670E7E730B583600023CCB2BD
:103BC00043730133047342608373C4730D00006850
:103BD000012C06D9421C0133DBB2137003329C4224
:103BE000F9D1FF2129404B00591800234018033810
:103BF000437030BDF8B5CE46474606000C0080B590
:103C0000002907D04D0003686D18033D5A195778F5
:103C1000002F04D12000C0BCB946B046F8BD7900E1
:103C2000C919033988464344597889460021597097
:103C3000517073683A002100806898473368002803
:103C400014D042469A18947059195B5D002B00D02D
:103C500053700F70270049463000FFF7CBFF390043
:103C600002003000FFF774FF0400D3E742464146EC
:103C70005D19AF709A185B5C002B00D06B701470EC
:103C8000E9E7C046F0B557464546DE464E46E0B544
:103C90000D006B0001685B19DF1E0400C85D83B076
:103CA0000192CA19002850D043001B18033BCB18BF
:103CB0005E78B446002E1AD1019E002E42D0E67BDB
:103CC000002E04D073009B19CB18033B5D70A37BBF
:103CD000002B00D1A573E57300282FD1002353706A
:103CE00003B0F0BCBB46B246A946A046F0BD720088
:103CF0006244033A89184A78904600224A709146F5
:103D00005A70010032002000FFF722FF434682462E
:103D1000002B07D05B0021684344033BCB185A7843
:103D2000002A16D1424651462000FFF711FF2168B4
:103D3000019BCA19002BC2D10028CFD043001B1809
:103D4000033BCB1800219970C8E7019B002BB6D12B
:103D5000C4E750008018033809184878834648465D
:103D60004870587041462000FFF7F2FE59468046E1
:103D70002000FFF73FFF414602002000FFF7E8FE6A
:103D80008046CFE7F0B557464546DE464E46E0B59D
:103D900083B00191457B04006B0000685B19DF1E56
:103DA000C15DC219002952D04B005B18033BC318F8
:103DB0005E78B446002E1CD1019E002E44D0E67BD6
:103DC000002E04D073009B19C318033B5D70A37BC6
:103DD000002B00D1A573E573002931D10023280001
:103DE0005370617303B0F0BCBB46B246A946A0460F
:103DF000F0BD72006244033A801842789046002277
:103E0000427091465A7020003200FFF7A1FE4346EF
:103E10008246002B07D05B0021684344033BCB184C
:103E20005A78002A17D1424651462000FFF790FEEB
:103E3000019B01002068C219002BC0D10029CDD000
:103E40004B005B18033BC31800209870C6E7019B2A
:103E5000002BB4D1C2E75000801803380918487805
:103E6000834648464870587041462000FFF770FE70
:103E7000594680462000FFF7BDFE41460200200063
:103E8000FFF766FE8046CEE770B5040000292CD00F
:103E9000437B8B422ED00568480040180338281811
:103EA0008278002A21D053009B18033BEA5CEE186D
:103EB0008A4202D11BE0002A08D053009B18033B22
:103EC000EB185A788A42F6D142785A7000230122C0
:103ED000837043702000FFF7D5FE617B0200200055
:103EE000FFF736FE6073012000E0002070BD4378CC
:103EF0003370EBE701221900FFF7C4FE6073012065
:103F0000F4E7C046F8B5CE464746040080B5062023
:103F10000E0000F023FA051E51D0524B5249E21810
:103F200053425A418023DB039C4692054F4B624427
:103F30001A604F4B1A6010008B689843FBD1494BB5
:103F40008021E3185A4253414A4A5B004900995282
:103F5000062000F003FA3100C00001F057FEC3094B
:103F600032D14022012190466162A362256BEB07AA
:103F700036D427008026E36A00232C3776013E439F
:103F800033600620256300F0E9F94146800001F026
:103F90003DFE236B05009846DB073BD46022E36AB5
:103FA0005A406E231340336043462363802310221C
:103FB0009B013B431A60304B23630323A364280017
:103FC000C0BCB946B046F8BD2C4A93423FD9002345
:103FD0002B492C4A6162A362256B9046EB07C8D53A
:103FE0002200C02330329B011343234A06201A606B
:103FF000666AA26AB601B61800F0B0F9224901F06B
:1040000005FEB6020100300001F000FE0021FFF7BE
:1040100097FCAEE72200C02330329B011343164ABF
:1040200006201A60636AA26A9B019946914400F0D7
:1040300095F94B4614499B02994601F0E7FD0100B2
:10404000484601F0E3FD0021FFF77AFCA6E77F2256
:10405000990188461040013040081900804403004F
:1040600082E7C0460080FCBF00C0004000E0004086
:1040700000F000408C06002001030000FEFF00005D
:10408000FFFF0000C0FF3F004E0E000030B50C20C7
:1040900083B000F0B9F9FEF771FE00280ED0994BFD
:1040A000994A1A605A609A60DA601A615A619A6194
:1040B000DA611A62954A5A6203B030BD944CA06727
:1040C00000F0AAF90122934B1A60636C012BFCD11A
:1040D0000322914B1A608E4A936B012BFCD1013362
:1040E00001218E4A8E480093043300F03DF90523E8
:1040F0008C4A009301218C4800F036F98B4B5A68AA
:10410000FF2A02D8802252005A6080227D4C824BC6
:1041100021691201854D1A60002907D0606901F0FC
:1041200075FD431C5800C0180338FDD2E0217F4BB9
:1041300002201A681140802252012A431160196836
:10414000484003210140116004219A681142FCD0CB
:104150008022802192012A430901116080225200AD
:104160005A60734B2361734B5968FF2900D85A601A
:104170000321684A6F4B116002399A681142FCD0E2
:10418000E0201A681040802252011A43106018681B
:104190004840032101400220116066498A681042AC
:1041A000FCD0802292011343802212011A608022E7
:1041B000614B52004A606361604B5968FF2900D827
:1041C0005A6080225E4BE16912015C4D1A60002941
:1041D00007D0606901F01AFD431C5800C01803386D
:1041E000FDD2E02255490B681A4080235B012B4326
:1041F0001A60802380229B012B4312011A608022C7
:10420000414B52004A60E3614E4B5968FF2900D888
:104210005A6080224C4B216A12014A4D1A600029D3
:1042200007D0606901F0F2FC431C5800C018033845
:10423000FDD2E02243490B681A4080235B012B43E7
:104240001A60802380229B012B4312011A60802375
:1042500080225B004B602C4BD20223623B4B59689F
:10426000914200D25A608022394B616A1201374D67
:104270001A60002907D0606901F0C8FC431C58008F
:10428000C0180338FDD2E02230490B681A40802361
:104290005B012B431A60802380229B012B43120178
:1042A0001A608023DB024B60184B6362294B5A680B
:1042B000FF2A02D8802252005A608022264BA16930
:1042C0001201244D1A60002907D0606901F09EFC9C
:1042D000431C5800C0180338FDD2E0221D490B686A
:1042E0001A4080235B012B431A60802380229B01AC
:1042F0002B4312011A6080235B004B600E4BA361BD
:10430000DAE6C046E4050020006CDC021BB70000C2
:10431000008000403CB0004030B00040002F6859A1
:1043200000800240008C864700C002403080004080
:10433000001BB7003C800040405973075480004088
:1043400054B000406080004060B000406C8000408D
:104350006CB000404880004048B00040014B8000F5
:10436000C0587047E4050020F8B5040021481D003E
:1043700017000E0001F04AFC0100380001F046FC75
:10438000069B29041B0319432368002B20DB1A4BCF
:104390001A4DE21853425A4180235B019C46120396
:1043A000174B62441A60174B1A601700AB689F43A3
:1043B000FBD1C022231D92011A4321232660A06055
:1043C00013602368002BFCDA0823E1601360F8BD5A
:1043D0003F2322681340B342D9D1A3681B051B0DAC
:1043E0008342D4D1EE22E368D20213408B42CED175
:1043F000EDE7C046001BB7000040FDBF00C0004015
:1044000000E0004000F000408023024A9B0003438C
:10441000D362704700800540AA23064A1B0113603F
:104420002F230549D360054B19605368002BFCDA34
:104430007047C0460040024000B0FA0000600240F1
:104440002C4B2D4A70B51A602C4A2D4B2D491A6001
:1044500014008B689C43FBD12B4D2C4EB54208D2E7
:10446000013E761BB60808CD984723000134B342BD
:10447000F9D1FFF70BFE264A214B1A60214A9368B7
:10448000DB43DB01DD09002BF9D14022214B224C1B
:10449000224E9A675A671A67DA66B44208D22368CE
:1044A0002000002B20D00834FEF760FEB442F6D383
:1044B0001B4E1C4CC022A168300002F0E7FAA66037
:1044C000FEF79CFCFEF72AFEFEF7EEFF164C174E99
:1044D000B44208D2013E361BB60808CC98472B00E0
:1044E00001359E42F9D170BD0834FEF731FEB44269
:1044F000D5D3DDE700E00040BFCDFBFEFE7F3C00F2
:1045000000F0004000C00040600200207002002067
:10451000FFFFFF0100F00140580200206002002070
:104520000000002000ED00E0700200207802002072
:1045300000BEFDE710B5FFF7FBFFC0460FB400B5A6
:10454000084883B002F0D4FB049B002B07D005A9D8
:104550001800019101F0DAFA034802F0C9FB0120CA
:10456000FFF7E6FF687800107878001010B5014872
:10457000FFF7E4FF7C7800109A4200D2885470471D
:104580007047C046F8B557464E464546DE46E0B54C
:1045900099460A9B07009A460D9B8846934615004C
:1045A0000B9E9B0710D10C9B9E420DD29D1B1400AD
:1045B0000E005D4422004B46013431002020B847F4
:1045C000A542F7D1B0460B9E002E27D04446751960
:1045D0005346AA1B013E985D21004B46B847002E6A
:1045E000F6D123002C0098460D9B9B070FD55B4608
:1045F000E51A0C9BAB420AD94646984622004B4628
:10460000310020200135B8470134A845F6D82000F4
:10461000F0BCBB46B246A946A046F8BD2C00E3E775
:10462000F0B54F464646D646C0B584B098460EAB68
:104630001B78129F994694460D9C109B119EBA07B9
:1046400025D4002E4BD19C4200D3BFE001223A403A
:1046500092461F2C00D9B8E00C9A551E302201E07A
:10466000202C03D001342A55A342F9D85246002AFF
:104670000DD0A6420BD9202C44D00C9A551E3022C6
:1046800001E0202C3ED001342A55B442F9D1FA067B
:104690004DD57A053FD4002C39D10F9B102B00D17A
:1046A00079E00F9B022B00D18AE030230C9A012481
:1046B00013704B46002B3FD02D230C9A1355013419
:1046C0000C9B624600930397434602960194FFF7C2
:1046D00059FF04B0E0BCBA46B146A846F0BD01227D
:1046E00015003D40AA463A422FD04A46002A02D140
:1046F0000C323A4200D0013E9C42BAD21F2CABD9B8
:10470000202E27D92024FA06DAD57A0503D4A3422D
:104710002DD0A6422BD00F9B102B32D0022B20D0B5
:10472000202CCDD030220C9B1B191A700134202C68
:10473000C6D04B46002BBFD17B070DD43B07BFD55E
:1047400020230C9A13550134BAE79C429FD21F2CA8
:1047500000D881E720249AE72B230C9A13550134C3
:10476000AEE7202CACD00C9B1B1901343AE0631E41
:10477000012C92D00F9A102A2AD0022A2FD01C0086
:10478000D0E7BB060ED4202C9AD00C9B1A1901340A
:1047900078231370C4E7BB060DD478230C9A012448
:1047A0001370BFE7202C00D18AE758220C9B1B19FD
:1047B0001A700134B4E758230C9A01241370B1E73E
:1047C0000C9A603301241370ACE7202400265EE7C6
:1047D000023CBA06E9D40C9A12191C00D8E70C9ACC
:1047E0009246534462221A709AE7C04610B50028D8
:1047F00000D110BD02F030FAFBE7C046F0B5DE464E
:1048000057464E464546E0B59BB09B46249B89469D
:104810009846259B0B900C924046424619009A46BA
:1048200001F0BDFC002800D0D8E0012240465146EE
:10483000774B524201F0AEFC002800D0CEE00122BE
:1048400040465146734B524201F08EFC002800D086
:10485000C4E0002200234046514601F085FC0028B8
:1048600000D0B9E1424653460A9209938023289A20
:10487000DB001A400E92289A1A4201D10623269391
:104880000A9A099B1600134300D0C7E0289B002515
:1048900000261B0500D49BE100230D93269A0D9B57
:1048A0009A4200DC9FE1D01A431E26938023289A67
:1048B000DB001A430023002728920D93279B002436
:1048C000BB4200D9DC1B0223289A1A400E92289A78
:1048D000134203D07B427B415B421C400D9B002B6B
:1048E00007D00A9809992A00330001F0DCFB0A90EE
:1048F0000991002200234046514601F035FC002872
:1049000005D0802000068446099961440991289ABF
:10491000414B0B9D13400493269B0A9A0293099BDB
:1049200003940092019349465B4628000C9A00F0DC
:104930008BF90400002F62D0289B220098061F23C9
:10494000C0179843631C984649465B466530A847A4
:104950000D9B0025DA179C18DB0F9A465440013F47
:1049600001E0202D13D00AAA94461F23200063449F
:104970000A2101355E1901F049F93031317020000A
:104980000A2101F043F926000400092EE9D8052385
:104990000693002304930A330393534605970B9F12
:1049A000029312AB009342465B464946380001959C
:1049B000FFF736FE0E9B0400002B20D00C9BC51A7F
:1049C000279BAB421BD91E0022005B464946202094
:1049D0000135B8470134AE42F6D810E0289B424674
:1049E0000493279B49460393269B0B9802935346B7
:1049F000009201935B460C9A00F026F90400200017
:104A00001BB0F0BCBB46B246A946A046F0BDC046AE
:104A1000FFFFEF7FFFFFEFFFFFF7FFFF734B099FE4
:104A20009C467800400D604401F0CCFB704A714B0D
:104A300001F057FB704A714B01F02CFB3B03704AAD
:104A40001B0B1A4304000D00300011006D4B0022B7
:104A500001F017FB6C4A6D4B01F043FB02000B00A9
:104A60002000290001F016FB01F0C4FB0D9001F0BD
:104A7000A9FB674A674B04000D0001F032FB0022DE
:104A8000654B01F007FB01F0B5FB644A0600644B7F
:104A90002000290001F025FB040030000D000F96D6
:104AA00001F090FB5F4A604B01F01BFB02000B0022
:104AB0002000290001F0E5FA02000B0006000F00BB
:104AC00001F00FFB320004000D003B003000390004
:104AD00001F0E0FA002210901191544B20002900BF
:104AE00001F0E1FA0022524B01F0D4FA02000B006F
:104AF0002000290001F0D7FA00224E4B01F0CAFA3B
:104B000002000B002000290001F0CDFA0D008021E9
:104B1000040032003B000020C90501F0B2FA020097
:104B20000B002000290001F0B5FA02000B001098DC
:104B3000119901F0B8FA0022314B01F0ABFA3E4B6B
:104B40000F9C9C4664440022230501F0CAFA05002C
:104B50000E0002000B000A98099901F005FB0028DD
:104B60000AD00D9B2800013B31000D930022304BF1
:104B700001F099FA05000E00C6270D992B0063314C
:104B80008F42BF4128997F420437090500D495E63A
:104B9000334300D182E6099C284A2100284B0A9819
:104BA00001F0F0FA002808D000222100254B0A98D5
:104BB00001F0DAFA002800D070E6269B002B00D125
:104BC0007CE60E9B5A1E9341269AD31A269375E6CD
:104BD000002304270D9371E643460A9380231B06A6
:104BE0005344099342E6002326935FE601FCFFFF4E
:104BF000FB799F501344D33FB3C8608B288AC63FCC
:104C00000000F03F0000F83F61436F63A787D23F89
:104C100071A379094F930A400000E03F1655B5BBD8
:104C2000B16B0240EF39FAFE422EE63F00002C4005
:104C30000000244000001840FF0300002D431CEB3F
:104C4000E2361A3F80842E41F0B54E46DE46574686
:104C50004546E0B597B09946209E219F229B83460A
:104C6000984607910C923B0032003000390001F069
:104C700096FA002800D0A9E1012230003900CA4B81
:104C8000524201F071FA002800D0E1E00122300028
:104C90003900C64B524201F07DFA002800D0B7E03F
:104CA000002230003900C24B01F074FA002800D015
:104CB00099E0002230003900BE4B01F055FA00287F
:104CC00000D090E0002200233000390001F04CFABF
:104CD000002800D0B1E000230D93249B5B0501D494
:104CE0000623984608AB9C461722002430234146F1
:104CF000624404E0013413550139202C01D0092904
:104D0000F8D888463000390001F074FA4346DA00DA
:104D1000A94B05009B181A685B680892099301F07B
:104D200051FA02000B003000390001F0AAF9089A8C
:104D3000099B01F0D6F90A900B9101F07FFA8246A7
:104D400001F03CFA02000B000A980B9901F099F966
:104D500000229A4B0A900B9101F01CFA002800D116
:104D6000C0E001239C46E244504601F027FA0200CD
:104D70000B000898099901F0FDF9002802D00023E2
:104D80009A4601354346002B6AD008AB17269C464D
:104D900008956644554614E001235B4243440A21CA
:104DA00028009A4600F032FF01343031371939704B
:104DB00028000A2100F02AFF092D00D8D0E0D046B3
:104DC0000500202CE8D10EAB98460323249A13400B
:104DD000012B00D196E02023249A01930392239A79
:104DE000434602921EE0249B58460493239B009660
:104DF0000197039343460C9A029307994B46FFF79A
:104E0000FDFC17B0F0BCBB46B246A946A046F0BDBB
:104E1000249B5B070ED40322694B249901920391D2
:104E200023990291009358464B460C9A0799FFF735
:104E3000A9FBE6E70422634BEFE73B0032000020CA
:104E4000002101F01EF9012306000F000D9344E735
:104E5000249B0393239B0293042301935A4BE1E782
:104E6000280001F0AFF902000B003000390001F01A
:104E700008F9524B002206000F0001F075F90EAB45
:104E8000984600280AD10022300039004B4B01F02F
:104E900081F9002802D1EB0700D50135202C94D0F0
:104EA00008AA94461723280063440A2101341E19D6
:104EB00000F084FE3031280031700A2100F07EFEBF
:104EC000051EEBD10323249A1340012B1BD0202C69
:104ED00000D180E70D9B002B35D02D224146631C6D
:104EE0000A5579E700220A980B99344B01F03CF9F6
:104EF000002800D046E75346002B51D101239C46A1
:104F0000E2443FE72024239B002BE0D00D9B002BA5
:104F100003D1249A0C33134202D0239B013B2393E9
:104F2000239BA342D3D908AB9C461722302362446B
:104F3000202C00D14FE72399013413558C42C6D061
:104F4000202CF8D147E7249B5B0724D4249A230024
:104F5000120700D440E72022414601330A553BE7BF
:104F60005746089D202C00D12DE7220030214046D5
:104F7000002F09D00132B154202A00D123E7D343B6
:104F80001B191B18002BF5D10EAB98462E2341465A
:104F9000541C8B5482E72B224146631C0A551BE7A5
:104FA000DB0700D4EEE6A9E7FFFFEFFFFFFFEF7F8F
:104FB00065CDCD4165CDCDC1807A00100000E03FC8
:104FC000887800108C78001098780010249B039348
:104FD000239B029303230193004B23E79478001053
:104FE000F0B5DE464E4657464546E0B59FB01C003C
:104FF000289B91460993C94AC94B8B4608901A6071
:10500000002900D118E2002320789A46002800D118
:105010001AE226001D005C460AE02A006F1C4B467F
:10502000089D2100A8473D0001363078002870D047
:105030002528F2D110239B46083B9A46043B98460C
:10504000023B00219C46721C107816000300203B96
:10505000DBB2102B03D8B34F9B00FB589F460300D5
:10506000303B092B32D900230A932A2868D0002329
:1050700098462E283ED00300683BDBB2122B1CD88A
:10508000A94A9B00D3589F46012301321943DBE70D
:10509000634601321943D7E7434601321943D3E748
:1050A0005B4601321943CFE7534601321943CBE740
:1050B00080235B007078194301360300253BDBB287
:1050C000532BAAD8994A9B00D3589F460027030028
:1050D000B800C01901364000C018337830381A00C3
:1050E000303A0700092AF3D90A901800002398469D
:1050F0002E28C0D180237078DB0019430300303B99
:10510000721C092B00D8A1E12A2800D1B2E11600B7
:10511000B1E7A346AA462C00D14503D801235B4240
:105120004B449A464B46524659460020089DA84794
:1051300020001FB0F0BCBB46B246A946A046F0BD59
:10514000099B40CB0A96002E03DB50780993561C2E
:105150008DE72838014370420A9009935078561C15
:1051600085E7782800D1DFE1582800D14CE26F288C
:1051700000D14FE3622801D100F030FC10230A0077
:105180009A430B92692801D000F0A9FC0A230C93E2
:105190004B0500D5D0E10B9A802311009B001940EC
:1051A0008B461A4200D0A1E2802311005B00194017
:1051B0008A461A4200D0B6E313005B0600D5EDE242
:1051C000130009991B0601D400F076FC08C91BB234
:1051D000D8171A18424092B209919346DA0F1292E8
:1051E000002B09D1802310220B99DB000B40914347
:1051F0000B91002B00D0E4E20B9A6123920600D5BC
:1052000041230EA91F228C46DBB262440A3B5F4653
:105210001395A34655460C9CB2460D9316000AE022
:105220003033DBB201357355A74200D2EDE2202DB9
:1052300000D1EAE207002100380000F0E7FCCBB221
:105240000929EDD90D9A94466344DBB2EAE780233D
:105250009B007078194301362FE77078682800D1D9
:10526000CDE180230136194327E770786C2800D1FF
:10527000BFE180235B00194301361EE7462800D1B9
:105280009BE10722099B0491073393430A9A190073
:105290000392424602920CC9089800920193099128
:1052A0002A004B462100FFF7CFFC01360500BCE683
:1052B0002A006F1C4B46089D21002520A847013677
:1052C0003D00B2E68B0700D4ADE1099B2A009A4667
:1052D0006B1C9846534601CB21009A46089F4B46CB
:1052E000C0B2B8470A9B9C466544012B00D886E2B1
:1052F000089B4746B04626004C4699463A00230094
:10530000013731002020C847AF42F7D1A1465346AC
:10531000340046460993013687E6C046E14F001047
:1053200054060020A0780010E478001030790010B6
:10533000099B04CB9B4643460992002B00D1C6E053
:1053400013789C46002B00D1BDE34346013B099AEC
:105350000133D0180A9F130001E0834203D05A782A
:105360000133002AF9D1099A0A979B1A0B938023DB
:105370000A00DB001A400C92194204D00B9B4345F3
:1053800001D943460B9302231A000A400D920B42A7
:1053900000D187E16046002800D168E10C9B002B1A
:1053A00000D10DE1A844C246099B57465B1B9846B5
:1053B000089BB2462A0026004C46994609E0230085
:1053C0003100551CC8474346585D002800D126E1EE
:1053D0002A009742F3D1A1463D00340056460D9B6A
:1053E000002B00D043E15B46013609931DE6099B83
:1053F0001A0008CA9246002B48D0212211438B463E
:105400000EA884461F216144099500220F27A44657
:105410000D0002E0202A0CD00B003C001C402000B4
:105420003730092C00D807380132A85419090F2B3E
:10543000F0D86446099D32E0DC4B207808930023C5
:105440009A46002800D0E4E5002465E643460600BD
:105450000A9F9800C0180132400080191678030096
:1054600030003038303B0928F3D930009846160018
:105470000A9700E6099B023604CB9046D243404689
:10548000D2171040804609933078F4E510220800C6
:10549000904311321043834600224905B0D55B4644
:1054A0000693082305934346049310230393002394
:1054B000029316AB019200932A004B4621000898F4
:1054C000FFF7AEF85346050001360993ADE51378B2
:1054D0009C46002B00D1F7E202235B4237E72023F2
:1054E00002009A43472A04D180231B011943022357
:1054F0009843452801D1202319430722099B049191
:10550000073393430A9A19000392424602920CC948
:1055100008980092019309912A004B462100FFF759
:105520006DF90136050080E510230C930C230A0069
:105530009A430B924B0503D501230B9A9A430B9286
:10554000692800D127E6642800D124E60B9A80233D
:1055500011009B0019408B461A4200D066E180235F
:1055600011005B0019408A461A4200D039E213004C
:105570005B0600D53CE113001B0600D4A6E2099BA4
:1055800004CB1204120C934609935B46002B00D007
:105590009AE10B9A1033110099430B91520500D4F4
:1055A00092E100239A460B9B06930A9B0593434680
:1055B00004930C9B039300230CE12023194360E622
:1055C000099B0A9A5B1B98464B4691461F00B246C0
:1055D0002600089C2A003B003100A04743460135C5
:1055E000585D0028F6D14A463400B94656460A921C
:1055F000F5E6C0239B00B078194302365DE5C02371
:10560000B0781943023658E50C230A009A43143344
:105610001A43103B0B920C934B058DD496E7A14691
:1056200034005646DBE60A9A012A00D853E26B1E84
:105630009F18089BB04626004C4699462A00230036
:10564000013531002020C847BD42F7D1A1463400C2
:105650004646099B3A0001CB210098467D1C4B46EB
:10566000089FC0B2B847434601360993DDE40B9B5F
:105670000A9AA8469A4200D8B5E694466544ED1ABF
:10568000089B4746B04626004C4699463A00230000
:10569000013731002020C847AF42F7D1A14634007E
:1056A0004646A0E60B9A0A99531C914200D814E290
:1056B0004B199B1A1F00089BB24626004C46994680
:1056C0002A002300013531002020C847BD42F7D110
:1056D0000A9BA14601330B93099B34001B78564665
:1056E0009C466046002800D058E67CE60722099BCD
:1056F00007339343013294469C4462465F680992A3
:105700001A68FB17109311931098119903005340D6
:105710000E930B007B400F9394460E9A0F9B121A28
:105720008B410E920F93FB0F6246129300233A4374
:105730009B463DD00B9A6123920600D5412300225F
:10574000DBB20EA90A3B8C4692460D9343461F32AC
:1057500062441395159655460E9E0F9FA24690469D
:105760000C9C14930CE03032D2B2434601355A55AA
:10577000BB4500D18AE1202D00D18AE106000F004F
:10578000220000233000390000F07EFAD2B2092A4C
:10579000E9D90D9B9C466244D2B2E6E7FF23099902
:1057A00004C913401A00099117E5C046814500104D
:1057B0000B9A1033110099430B915205BAD500236F
:1057C0009A460B9B06930A9B0593434604930C9BB6
:1057D0000393129B02935346019316AB2A00009346
:1057E00021004B460898FEF71BFF013605001CE41C
:1057F000FF22099B02CB11408B460993C5E6534615
:10580000454609930136FFF710FC56465C46AA460A
:10581000139DD6E708230C930B910B99642800D0B5
:1058200084E60B9B5B0500D586E6B4E40722099B62
:1058300007339343013294469C44624609921A68A6
:105840005B6810009B4613005A46134307D10B9A1E
:105850001033110099430B91520500D5A1E60B9A24
:105860006123920600D541230022DBB20EA90A3B38
:105870008C4692460D9343461F3262445F46129512
:10588000A34655460400B24690460C9E13930DE085
:105890003032D2B2434601355A550023BB4200D1C3
:1058A00000E1202D00D100E104000F0032000023B0
:1058B0002000390000F0E8F9D2B2092AE8D90D9B9E
:1058C0009C466244D2B2E5E70B9A6123920600D56A
:1058D0004123DBB20EA90A3B1F228C460D93230005
:1058E00062445C461295170055469B46B2460C9E94
:1058F00008E03033DBB201357B55B4420ED3202DA6
:105900000CD004003100200000F080F9CBB209294E
:10591000EFD90D9A94466344DBB2ECE756465C46F9
:10592000AA46129D3FE6099B1A0008CAD91713928E
:105930005A184A409246DA0F1292002B08D180235F
:1059400010220B99DB000B4091430B91002B2BD1C4
:105950000B9A6123920600D541230EAA1F27944675
:10596000DBB20A3B0D9567445D460993A346544656
:10597000B2460C9E08E03033DBB201357B55B442B1
:105980000ED3202D0CD004003100200000F03EF991
:10599000CBB20929EFD9099A94466344DBB2ECE70C
:1059A00056465C46AB460D9D0B9B2A0006930A9B10
:1059B00021000593434604930C9B08980393129B84
:1059C000013602935B46019316AB00934B46FEF7FC
:1059D00027FE139B05000993FFF727FB02230C9377
:1059E0001AE7099B04CB92461293002A08D1802320
:1059F00010220B99DB000B4091430B91002B2BD114
:105A00000B9A6123920600D541230EAA1F279446C4
:105A1000DBB20A3B0D9567445D460993A3465446A5
:105A2000B2460C9E08E03033DBB201357B55B44200
:105A30000ED3202D0CD004003100200000F0E6F839
:105A4000CBB20929EFD9099A94466344DBB2ECE75B
:105A500056465C46AB460D9D0B9B2A0006930A9B5F
:105A600021000593434604930C9B0898039300235D
:105A700002935B46019316AB00934B46FEF7D0FDB5
:105A8000129B050009930136FFF7CFFAB44200D804
:105A900071E6149B54460E960F97AA469846159E9B
:105AA000139D8EE6A64200D8FBE6139B5646984609
:105AB000AA465C46129D76E508C9D8171A184240D6
:105AC0000991FFF78AFB00230B9350E4099B04CB59
:105AD0009346099359E52F00BBE50B9301E6063B7E
